{"contracts/ERC20.sol":{"MyToken":{"abi":[{"inputs":[{"internalType":"address","name":"_marketing","type":"address"},{"internalType":"address","name":"_team","type":"address"},{"internalType":"uint256","name":"_liquidityFee","type":"uint256"},{"internalType":"uint256","name":"_marketingFee","type":"uint256"},{"internalType":"uint256","name":"_utilityFee","type":"uint256"},{"internalType":"uint256","name":"_teamFee","type":"uint256"},{"internalType":"uint256","name":"_burnFee","type":"uint256"}],"stateMutability":"nonpayable","type":"constructor"},{"anonymous":false,"inputs":[{"indexed":true,"internalType":"address","name":"owner","type":"address"},{"indexed":true,"internalType":"address","name":"spender","type":"address"},{"indexed":false,"internalType":"uint256","name":"value","type":"uint256"}],"name":"Approval","type":"event"},{"anonymous":false,"inputs":[],"name":"BuyTaxesUpdated","type":"event"},{"anonymous":false,"inputs":[],"name":"ExcludedFromFeesUpdated","type":"event"},{"anonymous":false,"inputs":[],"name":"Launched","type":"event"},{"anonymous":false,"inputs":[],"name":"MarketingWalletUpdated","type":"event"},{"anonymous":false,"inputs":[],"name":"MaxTxAmountUpdated","type":"event"},{"anonymous":false,"inputs":[],"name":"MaxWalletAmountUpdated","type":"event"},{"anonymous":false,"inputs":[{"indexed":true,"internalType":"address","name":"previousOwner","type":"address"},{"indexed":true,"internalType":"address","name":"newOwner","type":"address"}],"name":"OwnershipTransferred","type":"event"},{"anonymous":false,"inputs":[],"name":"SellTaxesUpdated","type":"event"},{"anonymous":false,"inputs":[],"name":"StuckEthersCleared","type":"event"},{"anonymous":false,"inputs":[],"name":"SwapEnabled","type":"event"},{"anonymous":false,"inputs":[],"name":"SwapThresholdUpdated","type":"event"},{"anonymous":false,"inputs":[{"indexed":true,"internalType":"address","name":"from","type":"address"},{"indexed":true,"internalType":"address","name":"to","type":"address"},{"indexed":false,"internalType":"uint256","name":"value","type":"uint256"}],"name":"Transfer","type":"event"},{"anonymous":false,"inputs":[{"indexed":false,"internalType":"address","name":"token","type":"address"},{"indexed":false,"internalType":"uint256","name":"amount","type":"uint256"}],"name":"TransferForeignToken","type":"event"},{"anonymous":false,"inputs":[],"name":"teamWalletUpdated","type":"event"},{"anonymous":false,"inputs":[],"name":"utilityWalletUpdated","type":"event"},{"inputs":[{"internalType":"address","name":"owner","type":"address"},{"internalType":"address","name":"spender","type":"address"}],"name":"allowance","outputs":[{"internalType":"uint256","name":"","type":"uint256"}],"stateMutability":"view","type":"function"},{"inputs":[{"internalType":"address","name":"spender","type":"address"},{"internalType":"uint256","name":"amount","type":"uint256"}],"name":"approve","outputs":[{"internalType":"bool","name":"","type":"bool"}],"stateMutability":"nonpayable","type":"function"},{"inputs":[{"internalType":"address","name":"account","type":"address"}],"name":"balanceOf","outputs":[{"internalType":"uint256","name":"","type":"uint256"}],"stateMutability":"view","type":"function"},{"inputs":[],"name":"buyTaxes","outputs":[{"internalType":"uint256","name":"marketing","type":"uint256"},{"internalType":"uint256","name":"liquidity","type":"uint256"},{"internalType":"uint256","name":"team","type":"uint256"},{"internalType":"uint256","name":"utility","type":"uint256"},{"internalType":"uint256","name":"burn","type":"uint256"}],"stateMutability":"view","type":"function"},{"inputs":[{"internalType":"uint256","name":"amountPercentage","type":"uint256"}],"name":"clearStuckEthers","outputs":[],"stateMutability":"nonpayable","type":"function"},{"inputs":[],"name":"decimals","outputs":[{"internalType":"uint8","name":"","type":"uint8"}],"stateMutability":"view","type":"function"},{"inputs":[{"internalType":"address","name":"spender","type":"address"},{"internalType":"uint256","name":"subtractedValue","type":"uint256"}],"name":"decreaseAllowance","outputs":[{"internalType":"bool","name":"","type":"bool"}],"stateMutability":"nonpayable","type":"function"},{"inputs":[{"internalType":"address","name":"","type":"address"}],"name":"excludedFromFees","outputs":[{"internalType":"bool","name":"","type":"bool"}],"stateMutability":"view","type":"function"},{"inputs":[{"internalType":"address","name":"spender","type":"address"},{"internalType":"uint256","name":"addedValue","type":"uint256"}],"name":"increaseAllowance","outputs":[{"internalType":"bool","name":"","type":"bool"}],"stateMutability":"nonpayable","type":"function"},{"inputs":[],"name":"launch","outputs":[],"stateMutability":"nonpayable","type":"function"},{"inputs":[],"name":"launched","outputs":[{"internalType":"bool","name":"","type":"bool"}],"stateMutability":"view","type":"function"},{"inputs":[],"name":"marketingWallet","outputs":[{"internalType":"address","name":"","type":"address"}],"stateMutability":"view","type":"function"},{"inputs":[],"name":"name","outputs":[{"internalType":"string","name":"","type":"string"}],"stateMutability":"view","type":"function"},{"inputs":[],"name":"owner","outputs":[{"internalType":"address","name":"","type":"address"}],"stateMutability":"view","type":"function"},{"inputs":[],"name":"pair","outputs":[{"internalType":"address","name":"","type":"address"}],"stateMutability":"view","type":"function"},{"inputs":[],"name":"renounceOwnership","outputs":[],"stateMutability":"nonpayable","type":"function"},{"inputs":[],"name":"router","outputs":[{"internalType":"contract IRouter","name":"","type":"address"}],"stateMutability":"view","type":"function"},{"inputs":[],"name":"sellTaxes","outputs":[{"internalType":"uint256","name":"marketing","type":"uint256"},{"internalType":"uint256","name":"liquidity","type":"uint256"},{"internalType":"uint256","name":"team","type":"uint256"},{"internalType":"uint256","name":"utility","type":"uint256"},{"internalType":"uint256","name":"burn","type":"uint256"}],"stateMutability":"view","type":"function"},{"inputs":[{"internalType":"uint256","name":"_marketing","type":"uint256"},{"internalType":"uint256","name":"_liquidity","type":"uint256"},{"internalType":"uint256","name":"_team","type":"uint256"},{"internalType":"uint256","name":"_utility","type":"uint256"},{"internalType":"uint256","name":"_burn","type":"uint256"}],"name":"setBuyTaxes","outputs":[],"stateMutability":"nonpayable","type":"function"},{"inputs":[{"internalType":"address","name":"_address","type":"address"},{"internalType":"bool","name":"state","type":"bool"}],"name":"setExcludedFromFees","outputs":[],"stateMutability":"nonpayable","type":"function"},{"inputs":[{"internalType":"address","name":"newWallet","type":"address"}],"name":"setMarketingWallet","outputs":[],"stateMutability":"nonpayable","type":"function"},{"inputs":[{"internalType":"uint256","name":"_marketing","type":"uint256"},{"internalType":"uint256","name":"_liquidity","type":"uint256"},{"internalType":"uint256","name":"_team","type":"uint256"},{"internalType":"uint256","name":"_utility","type":"uint256"},{"internalType":"uint256","name":"_burn","type":"uint256"}],"name":"setSellTaxes","outputs":[],"stateMutability":"nonpayable","type":"function"},{"inputs":[{"internalType":"bool","name":"state","type":"bool"}],"name":"setSwapEnabled","outputs":[],"stateMutability":"nonpayable","type":"function"},{"inputs":[{"internalType":"uint256","name":"new_amount","type":"uint256"}],"name":"setSwapThreshold","outputs":[],"stateMutability":"nonpayable","type":"function"},{"inputs":[{"internalType":"address","name":"newWallet","type":"address"}],"name":"setteamWallet","outputs":[],"stateMutability":"nonpayable","type":"function"},{"inputs":[],"name":"swapEnabled","outputs":[{"internalType":"bool","name":"","type":"bool"}],"stateMutability":"view","type":"function"},{"inputs":[],"name":"swapThreshold","outputs":[{"internalType":"uint256","name":"","type":"uint256"}],"stateMutability":"view","type":"function"},{"inputs":[],"name":"symbol","outputs":[{"internalType":"string","name":"","type":"string"}],"stateMutability":"view","type":"function"},{"inputs":[],"name":"teamWallet","outputs":[{"internalType":"address","name":"","type":"address"}],"stateMutability":"view","type":"function"},{"inputs":[],"name":"totalSupply","outputs":[{"internalType":"uint256","name":"","type":"uint256"}],"stateMutability":"view","type":"function"},{"inputs":[{"internalType":"address","name":"recipient","type":"address"},{"internalType":"uint256","name":"amount","type":"uint256"}],"name":"transfer","outputs":[{"internalType":"bool","name":"","type":"bool"}],"stateMutability":"nonpayable","type":"function"},{"inputs":[{"internalType":"address","name":"sender","type":"address"},{"internalType":"address","name":"recipient","type":"address"},{"internalType":"uint256","name":"amount","type":"uint256"}],"name":"transferFrom","outputs":[{"internalType":"bool","name":"","type":"bool"}],"stateMutability":"nonpayable","type":"function"},{"inputs":[{"internalType":"address","name":"newOwner","type":"address"}],"name":"transferOwnership","outputs":[],"stateMutability":"nonpayable","type":"function"},{"inputs":[],"name":"unclog","outputs":[],"stateMutability":"nonpayable","type":"function"},{"inputs":[{"internalType":"address","name":"_token","type":"address"},{"internalType":"address","name":"_to","type":"address"}],"name":"withdrawStuckTokens","outputs":[{"internalType":"bool","name":"_sent","type":"bool"}],"stateMutability":"nonpayable","type":"function"},{"stateMutability":"payable","type":"receive"}],"evm":{"bytecode":{"linkReferences":{},"object":"608060405269d3c21bcecceda100000060085569021e19e0c9bab24000006017553480156200002d57600080fd5b5060405162002e0738038062002e0783398101604081905262000050916200062f565b604080518082018252600f81526e26bab430b6b6b0b2102930b6bd30b760891b6020808301918252835180850190945260058452641215195cdd60da1b908401528151919291620000a49160039162000548565b508051620000ba90600490602084019062000548565b505050620000d7620000d16200041960201b60201c565b6200041d565b620000eb336017546200046f60201b60201c565b336000908152601860209081526040808320805460ff19166001179055805163c45a015560e01b8152905173edf6066a2b290c185783862c7f4776a2c8077ad19392849263c45a01559260048083019392829003018186803b1580156200015157600080fd5b505afa15801562000166573d6000803e3d6000fd5b505050506040513d601f19601f820116820180604052508101906200018c91906200060b565b6001600160a01b031663c9c6539630846001600160a01b031663ad5c46486040518163ffffffff1660e01b815260040160206040518083038186803b158015620001d557600080fd5b505afa158015620001ea573d6000803e3d6000fd5b505050506040513d601f19601f820116820180604052508101906200021091906200060b565b6040518363ffffffff1660e01b81526004016200022f92919062000695565b602060405180830381600087803b1580156200024a57600080fd5b505af11580156200025f573d6000803e3d6000fd5b505050506040513d601f19601f820116820180604052508101906200028591906200060b565b600680546001600160a01b038086166001600160a01b03199283161790925560078054838516908316179055600980548d8416908316179055600a8054928c16929091169190911790556040805160a0808201835289825260208083018c905282840189905260608084018b90526080938401899052600b8c9055600c8d9055600d8a9055600e8b9055600f899055845192830185528b83529082018c9052928101889052918201889052018490526010879055601188905560128590556013869055601484905590508285856200035e8a8a620006ef565b6200036a9190620006ef565b620003769190620006ef565b620003829190620006ef565b601555828585620003948a8a620006ef565b620003a09190620006ef565b620003ac9190620006ef565b620003b89190620006ef565b6016555050306000908152601860205260408082208054600160ff1991821681179092556009546001600160a01b0390811685528385208054831684179055600a541684529190922080549091169091179055506200075195505050505050565b3390565b600580546001600160a01b038381166001600160a01b0319831681179093556040519116919082907f8be0079c531659141344cd1fd0a4f28419497f9722a3daafe3b4186f6b6457e090600090a35050565b6001600160a01b038216620004a15760405162461bcd60e51b81526004016200049890620006af565b60405180910390fd5b620004af6000838362000543565b8060026000828254620004c39190620006ef565b90915550506001600160a01b03821660009081526020819052604081208054839290620004f2908490620006ef565b90915550506040516001600160a01b038316906000907fddf252ad1be2c89b69c2b068fc378daa952ba7f163c4a11628f55a4df523b3ef9062000537908590620006e6565b60405180910390a35050565b505050565b828054620005569062000714565b90600052602060002090601f0160209004810192826200057a5760008555620005c5565b82601f106200059557805160ff1916838001178555620005c5565b82800160010185558215620005c5579182015b82811115620005c5578251825591602001919060010190620005a8565b50620005d3929150620005d7565b5090565b5b80821115620005d35760008155600101620005d8565b80516001600160a01b03811681146200060657600080fd5b919050565b6000602082840312156200061d578081fd5b6200062882620005ee565b9392505050565b600080600080600080600060e0888a0312156200064a578283fd5b6200065588620005ee565b96506200066560208901620005ee565b604089015160608a015160808b015160a08c015160c0909c01519a9d939c50919a90999198509650945092505050565b6001600160a01b0392831681529116602082015260400190565b6020808252601f908201527f45524332303a206d696e7420746f20746865207a65726f206164647265737300604082015260600190565b90815260200190565b600082198211156200070f57634e487b7160e01b81526011600452602481fd5b500190565b6002810460018216806200072957607f821691505b602082108114156200074b57634e487b7160e01b600052602260045260246000fd5b50919050565b6126a680620007616000396000f3fe6080604052600436106102085760003560e01c8063715018a611610118578063a8aa1b31116100a0578063dd62ed3e1161006f578063dd62ed3e1461058c578063e01af92c146105ac578063f2fde38b146105cc578063f66895a3146105ec578063f887ea40146106015761020f565b8063a8aa1b3114610517578063a9059cbb1461052c578063c791fc541461054c578063dbe66ca01461056c5761020f565b80638da5cb5b116100e75780638da5cb5b1461048d57806395d89b41146104a25780639aed7370146104b75780639d0014b1146104d7578063a457c2d7146104f75761020f565b8063715018a61461042857806375f0a8741461043d5780638091f3bf14610452578063864701a5146104675761020f565b8063395093511161019b578063599270441161016a578063599270441461039c5780635d098b38146103be57806367c45349146103de5780636ddd1713146103f357806370a08231146104085761020f565b8063395093511461031c57806340ac48d31461033c57806345bb0a111461035c578063590ffdce1461037c5761020f565b806318160ddd116101d757806318160ddd146102a557806323b872dd146102ba57806325b86edf146102da578063313ce567146102fa5761020f565b806301339c21146102145780630445b6671461022b57806306fdde0314610256578063095ea7b3146102785761020f565b3661020f57005b600080fd5b34801561022057600080fd5b50610229610616565b005b34801561023757600080fd5b506102406106d5565b60405161024d91906124e4565b60405180910390f35b34801561026257600080fd5b5061026b6106db565b60405161024d9190611ef1565b34801561028457600080fd5b50610298610293366004611d81565b61076d565b60405161024d9190611ee6565b3480156102b157600080fd5b5061024061078a565b3480156102c657600080fd5b506102986102d5366004611d14565b610790565b3480156102e657600080fd5b506102986102f5366004611cdc565b610827565b34801561030657600080fd5b5061030f6109ac565b60405161024d9190612580565b34801561032857600080fd5b50610298610337366004611d81565b6109b1565b34801561034857600080fd5b50610229610357366004611e41565b610a00565b34801561036857600080fd5b50610229610377366004611c9d565b610aff565b34801561038857600080fd5b50610229610397366004611d54565b610bc7565b3480156103a857600080fd5b506103b1610c54565b60405161024d9190611e7e565b3480156103ca57600080fd5b506102296103d9366004611c9d565b610c63565b3480156103ea57600080fd5b50610229610d2b565b3480156103ff57600080fd5b50610298610e87565b34801561041457600080fd5b50610240610423366004611c9d565b610e97565b34801561043457600080fd5b50610229610eb2565b34801561044957600080fd5b506103b1610efd565b34801561045e57600080fd5b50610298610f0c565b34801561047357600080fd5b5061047c610f1c565b60405161024d95949392919061255d565b34801561049957600080fd5b506103b1610f2e565b3480156104ae57600080fd5b5061026b610f3d565b3480156104c357600080fd5b506102296104d2366004611de4565b610f4c565b3480156104e357600080fd5b506102296104f2366004611de4565b610ffc565b34801561050357600080fd5b50610298610512366004611d81565b6110c1565b34801561052357600080fd5b506103b161113c565b34801561053857600080fd5b50610298610547366004611d81565b61114b565b34801561055857600080fd5b50610229610567366004611e41565b61115f565b34801561057857600080fd5b50610298610587366004611c9d565b611281565b34801561059857600080fd5b506102406105a7366004611cdc565b611296565b3480156105b857600080fd5b506102296105c7366004611dac565b6112c1565b3480156105d857600080fd5b506102296105e7366004611c9d565b611343565b3480156105f857600080fd5b5061047c6113b4565b34801561060d57600080fd5b506103b16113c6565b61061e6113d5565b6001600160a01b031661062f610f2e565b6001600160a01b03161461065e5760405162461bcd60e51b815260040161065590612356565b60405180910390fd5b600754600160b01b900460ff16156106885760405162461bcd60e51b815260040161065590611f44565b6007805460ff60a81b1960ff60b01b19909116600160b01b1716600160a81b1790556040517fba61a96074b3d636edeee92caddc86293c917d5b6818b7d3698bb52e02ec86c890600090a1565b60085481565b6060600380546106ea906125fc565b80601f0160208091040260200160405190810160405280929190818152602001828054610716906125fc565b80156107635780601f1061073857610100808354040283529160200191610763565b820191906000526020600020905b81548152906001019060200180831161074657829003601f168201915b5050505050905090565b600061078161077a6113d5565b84846113d9565b50600192915050565b60025490565b600061079d84848461148d565b6001600160a01b0384166000908152600160205260408120816107be6113d5565b6001600160a01b03166001600160a01b03168152602001908152602001600020549050828110156108015760405162461bcd60e51b81526004016106559061230e565b61081c8561080d6113d5565b61081786856125e5565b6113d9565b506001949350505050565b60006108316113d5565b6001600160a01b0316610842610f2e565b6001600160a01b0316146108685760405162461bcd60e51b815260040161065590612356565b6040516370a0823160e01b81526000906001600160a01b038516906370a0823190610897903090600401611e7e565b60206040518083038186803b1580156108af57600080fd5b505afa1580156108c3573d6000803e3d6000fd5b505050506040513d601f19601f820116820180604052508101906108e79190611dfc565b60405163a9059cbb60e01b81529091506001600160a01b0385169063a9059cbb906109189086908590600401611e92565b602060405180830381600087803b15801561093257600080fd5b505af1158015610946573d6000803e3d6000fd5b505050506040513d601f19601f8201168201806040525081019061096a9190611dc8565b91507fdeda980967fcead7b61e78ac46a4da14274af29e894d4d61e8b81ec38ab3e438848260405161099d929190611e92565b60405180910390a15092915050565b601290565b60006107816109be6113d5565b8484600160006109cc6113d5565b6001600160a01b03908116825260208083019390935260409182016000908120918b1681529252902054610817919061258e565b610a086113d5565b6001600160a01b0316610a19610f2e565b6001600160a01b031614610a3f5760405162461bcd60e51b815260040161065590612356565b6040805160a0810182528681526020810186905290810184905260608101839052608001819052600b859055600c849055600d839055600e829055600f819055808284610a8c878961258e565b610a96919061258e565b610aa0919061258e565b610aaa919061258e565b6015819055602d1015610acf5760405162461bcd60e51b815260040161065590612107565b6040517f5603f0cab8983038ffb2c31e46a497a67322819231397b1a4eff19e46e39851d90600090a15050505050565b610b076113d5565b6001600160a01b0316610b18610f2e565b6001600160a01b031614610b3e5760405162461bcd60e51b815260040161065590612356565b600a546001600160a01b039081166000908152601860205260409020805460ff191690558116610b805760405162461bcd60e51b81526004016106559061245d565b600a80546001600160a01b0319166001600160a01b0383161790556040517f6f87157d12009fa6a48337b37087840b3dfc5caa33decacfb14494211b1b3e8d90600090a150565b610bcf6113d5565b6001600160a01b0316610be0610f2e565b6001600160a01b031614610c065760405162461bcd60e51b815260040161065590612356565b6001600160a01b038216600090815260186020526040808220805460ff1916841515179055517fd03e5aecc1463f851cb441202cc200cd8754891d6b125b332588db1948d4cbed9190a15050565b600a546001600160a01b031681565b610c6b6113d5565b6001600160a01b0316610c7c610f2e565b6001600160a01b031614610ca25760405162461bcd60e51b815260040161065590612356565b6009546001600160a01b039081166000908152601860205260409020805460ff191690558116610ce45760405162461bcd60e51b815260040161065590612272565b600980546001600160a01b0319166001600160a01b0383161790556040517fecc84d499d57318161ab7effa4a1797c7500e9cce582fce989611566acadb0e090600090a150565b610d336113d5565b6001600160a01b0316610d44610f2e565b6001600160a01b031614610d6a5760405162461bcd60e51b815260040161065590612356565b6007805460ff60a01b1916600160a01b179055610d8e610d8930610e97565b6116ac565b476000610d9c6002836125a6565b90506000610daa82846125e5565b6009546040519192506000916001600160a01b03909116908490610dcd90611e7b565b60006040518083038185875af1925050503d8060008114610e0a576040519150601f19603f3d011682016040523d82523d6000602084013e610e0f565b606091505b5050600a546040519192506001600160a01b0316908390610e2f90611e7b565b60006040518083038185875af1925050503d8060008114610e6c576040519150601f19603f3d011682016040523d82523d6000602084013e610e71565b606091505b50506007805460ff60a01b191690555050505050565b600754600160a81b900460ff1681565b6001600160a01b031660009081526020819052604090205490565b610eba6113d5565b6001600160a01b0316610ecb610f2e565b6001600160a01b031614610ef15760405162461bcd60e51b815260040161065590612356565b610efb6000611831565b565b6009546001600160a01b031681565b600754600160b01b900460ff1681565b600b54600c54600d54600e54600f5485565b6005546001600160a01b031690565b6060600480546106ea906125fc565b610f546113d5565b6001600160a01b0316610f65610f2e565b6001600160a01b031614610f8b5760405162461bcd60e51b815260040161065590612356565b47336108fc6064610f9c85856125c6565b610fa691906125a6565b6040518115909202916000818181858888f19350505050158015610fce573d6000803e3d6000fd5b506040517ff20a449062e534a116785d71bddf65609cfc0bc86030f808c97d76660ddb4bf990600090a15050565b6110046113d5565b6001600160a01b0316611015610f2e565b6001600160a01b03161461103b5760405162461bcd60e51b815260040161065590612356565b61271081101561105d5760405162461bcd60e51b8152600401610655906122b9565b6301c9c3808111156110815760405162461bcd60e51b81526004016106559061206f565b61109381670de0b6b3a76400006125c6565b6008556040517ee5ce26a39fffb27e333aa941bc88d6cc7491c7ad00e1dc92cae29c83aec93d90600090a150565b600080600160006110d06113d5565b6001600160a01b039081168252602080830193909352604091820160009081209188168152925290205490508281101561111c5760405162461bcd60e51b81526004016106559061249f565b6111326111276113d5565b8561081786856125e5565b5060019392505050565b6007546001600160a01b031681565b60006107816111586113d5565b848461148d565b6111676113d5565b6001600160a01b0316611178610f2e565b6001600160a01b03161461119e5760405162461bcd60e51b815260040161065590612356565b6040805160a0810182528681526020810186905290810184905260608101839052608001819052601085905560118490556012839055601382905560148190558082846111eb878961258e565b6111f5919061258e565b6111ff919061258e565b611209919061258e565b6016819055602d101561122e5760405162461bcd60e51b81526004016106559061214f565b600160165410156112515760405162461bcd60e51b81526004016106559061222c565b6040517f13f91d6936cb30f23ecef75125dc94fead23e2cb4beb9d95058df43aa8c3078590600090a15050505050565b60186020526000908152604090205460ff1681565b6001600160a01b03918216600090815260016020908152604080832093909416825291909152205490565b6112c96113d5565b6001600160a01b03166112da610f2e565b6001600160a01b0316146113005760405162461bcd60e51b815260040161065590612356565b6007805460ff60a81b1916600160a81b831515021790556040517f41c787961cb389554b90a8dbfb700790a3f278f50ba1d330c0b555d884789b5a90600090a150565b61134b6113d5565b6001600160a01b031661135c610f2e565b6001600160a01b0316146113825760405162461bcd60e51b815260040161065590612356565b6001600160a01b0381166113a85760405162461bcd60e51b815260040161065590611fe7565b6113b181611831565b50565b60105460115460125460135460145485565b6006546001600160a01b031681565b3390565b6001600160a01b0383166113ff5760405162461bcd60e51b815260040161065590612419565b6001600160a01b0382166114255760405162461bcd60e51b81526004016106559061202d565b6001600160a01b0380841660008181526001602090815260408083209487168084529490915290819020849055517f8c5be1e5ebec7d5bd14f71427d1e84f3dd0314c0f7b2291e5b200ac8c7c3b925906114809085906124e4565b60405180910390a3505050565b600081116114ad5760405162461bcd60e51b81526004016106559061238b565b6001600160a01b03831660009081526018602052604090205460ff161580156114ef57506001600160a01b03821660009081526018602052604090205460ff16155b80156115055750600754600160a01b900460ff16155b1561153357600754600160b01b900460ff166115335760405162461bcd60e51b815260040161065590611fb7565b600754600090600160a01b900460ff168061156657506001600160a01b03841660009081526018602052604090205460ff165b8061158957506001600160a01b03831660009081526018602052604090205460ff165b15611596575060006115f7565b6007546001600160a01b03848116911614156115cd576064601654836115bc91906125c6565b6115c691906125a6565b90506115f7565b6007546001600160a01b03858116911614156115f3576064601554836115bc91906125c6565b5060005b600754600160a81b900460ff16801561161a5750600754600160a01b900460ff16155b801561163457506007546001600160a01b03858116911614155b80156116405750600081115b1561164d5761164d611883565b611661848461165c84866125e5565b611a2b565b801561167257611672843083611a2b565b6016546014546000919061168690846125c6565b61169091906125a6565b905080156116a5576116a53061dead83611a2b565b5050505050565b60408051600280825260608201835260009260208301908036833701905050905030816000815181106116ef57634e487b7160e01b600052603260045260246000fd5b6001600160a01b03928316602091820292909201810191909152600654604080516315ab88c960e31b81529051919093169263ad5c4648926004808301939192829003018186803b15801561174357600080fd5b505afa158015611757573d6000803e3d6000fd5b505050506040513d601f19601f8201168201806040525081019061177b9190611cc0565b8160018151811061179c57634e487b7160e01b600052603260045260246000fd5b6001600160a01b0392831660209182029290920101526006546117c291309116846113d9565b60065460405163791ac94760e01b81526001600160a01b039091169063791ac947906117fb9085906000908690309042906004016124ed565b600060405180830381600087803b15801561181557600080fd5b505af1158015611829573d6000803e3d6000fd5b505050505050565b600580546001600160a01b038381166001600160a01b0319831681179093556040519116919082907f8be0079c531659141344cd1fd0a4f28419497f9722a3daafe3b4186f6b6457e090600090a35050565b600754600160a01b900460ff16610efb576007805460ff60a01b1916600160a01b17905560006118b230610e97565b90506008548110611a1b57600060165460026118ce91906125c6565b9050600081601060010154846118e491906125c6565b6118ee91906125a6565b905060006118fc82856125e5565b905047611908826116ac565b600061191482476125e5565b60115490915060009061192790876125e5565b61193190836125a6565b60115490915060009061194490836125c6565b90506000861180156119565750600081115b15611965576119658682611b53565b6010546000906119768460026125c6565b61198091906125c6565b9050801561199e5760095461199e906001600160a01b031682611bfc565b6012546000906119af8560026125c6565b6119b991906125c6565b905080156119d757600a546119d7906001600160a01b031682611bfc565b6013546000906119e88660026125c6565b6119f291906125c6565b90508015611a1057600a54611a10906001600160a01b031682611bfc565b505050505050505050505b506007805460ff60a01b19169055565b6001600160a01b038316611a515760405162461bcd60e51b8152600401610655906123d4565b6001600160a01b038216611a775760405162461bcd60e51b815260040161065590611f74565b611a82838383611c98565b6001600160a01b03831660009081526020819052604090205481811015611abb5760405162461bcd60e51b8152600401610655906120c1565b611ac582826125e5565b6001600160a01b038086166000908152602081905260408082209390935590851681529081208054849290611afb90849061258e565b92505081905550826001600160a01b0316846001600160a01b03167fddf252ad1be2c89b69c2b068fc378daa952ba7f163c4a11628f55a4df523b3ef84604051611b4591906124e4565b60405180910390a350505050565b600654611b6b9030906001600160a01b0316846113d9565b60065460405163f305d71960e01b81526001600160a01b039091169063f305d719908390611baa9030908790600090819061dead904290600401611eab565b6060604051808303818588803b158015611bc357600080fd5b505af1158015611bd7573d6000803e3d6000fd5b50505050506040513d601f19601f820116820180604052508101906116a59190611e14565b80471015611c1c5760405162461bcd60e51b8152600401610655906121f5565b6000826001600160a01b031682604051611c3590611e7b565b60006040518083038185875af1925050503d8060008114611c72576040519150601f19603f3d011682016040523d82523d6000602084013e611c77565b606091505b5050905080611c985760405162461bcd60e51b815260040161065590612198565b505050565b600060208284031215611cae578081fd5b8135611cb98161264d565b9392505050565b600060208284031215611cd1578081fd5b8151611cb98161264d565b60008060408385031215611cee578081fd5b8235611cf98161264d565b91506020830135611d098161264d565b809150509250929050565b600080600060608486031215611d28578081fd5b8335611d338161264d565b92506020840135611d438161264d565b929592945050506040919091013590565b60008060408385031215611d66578182fd5b8235611d718161264d565b91506020830135611d0981612662565b60008060408385031215611d93578182fd5b8235611d9e8161264d565b946020939093013593505050565b600060208284031215611dbd578081fd5b8135611cb981612662565b600060208284031215611dd9578081fd5b8151611cb981612662565b600060208284031215611df5578081fd5b5035919050565b600060208284031215611e0d578081fd5b5051919050565b600080600060608486031215611e28578283fd5b8351925060208401519150604084015190509250925092565b600080600080600060a08688031215611e58578081fd5b505083359560208501359550604085013594606081013594506080013592509050565b90565b6001600160a01b0391909116815260200190565b6001600160a01b03929092168252602082015260400190565b6001600160a01b039687168152602081019590955260408501939093526060840191909152909216608082015260a081019190915260c00190565b901515815260200190565b6000602080835283518082850152825b81811015611f1d57858101830151858201604001528201611f01565b81811115611f2e5783604083870101525b50601f01601f1916929092016040019392505050565b60208082526016908201527554726164696e6720616c72656164792061637469766560501b604082015260600190565b60208082526023908201527f45524332303a207472616e7366657220746f20746865207a65726f206164647260408201526265737360e81b606082015260800190565b602080825260169082015275151c98591a5b99c81b9bdd081858dd1a5d99481e595d60521b604082015260600190565b60208082526026908201527f4f776e61626c653a206e6577206f776e657220697320746865207a65726f206160408201526564647265737360d01b606082015260800190565b60208082526022908201527f45524332303a20617070726f766520746f20746865207a65726f206164647265604082015261737360f01b606082015260800190565b60208082526032908201527f5377617020616d6f756e742063616e6e6f74206265206869676865722074686160408201527137101992903a37ba30b61039bab838363c9760711b606082015260800190565b60208082526026908201527f45524332303a207472616e7366657220616d6f756e7420657863656564732062604082015265616c616e636560d01b606082015260800190565b60208082526028908201527f546f74616c2062757920666565732063616e6e6f742062652067726561746572604082015267207468616e20352560c01b606082015260800190565b60208082526029908201527f546f74616c2073656c6c20666565732063616e6e6f742062652067726561746560408201526872207468616e20352560b81b606082015260800190565b6020808252603a908201527f416464726573733a20756e61626c6520746f2073656e642076616c75652c207260408201527f6563697069656e74206d61792068617665207265766572746564000000000000606082015260800190565b6020808252601d908201527f416464726573733a20696e73756666696369656e742062616c616e6365000000604082015260600190565b60208082526026908201527f546f74616c2073656c6c20666565732063616e6e6f742062656c65737320207460408201526568616e20312560d01b606082015260800190565b60208082526027908201527f4d61726b6574696e672057616c6c65742063616e6e6f74206265207a65726f206040820152666164647265737360c81b606082015260800190565b60208082526035908201527f5377617020616d6f756e742063616e6e6f74206265206c6f776572207468616e60408201527410181718181892903a37ba30b61039bab838363c9760591b606082015260800190565b60208082526028908201527f45524332303a207472616e7366657220616d6f756e74206578636565647320616040820152676c6c6f77616e636560c01b606082015260800190565b6020808252818101527f4f776e61626c653a2063616c6c6572206973206e6f7420746865206f776e6572604082015260600190565b60208082526029908201527f5472616e7366657220616d6f756e74206d7573742062652067726561746572206040820152687468616e207a65726f60b81b606082015260800190565b60208082526025908201527f45524332303a207472616e736665722066726f6d20746865207a65726f206164604082015264647265737360d81b606082015260800190565b60208082526024908201527f45524332303a20617070726f76652066726f6d20746865207a65726f206164646040820152637265737360e01b606082015260800190565b60208082526022908201527f7465616d2057616c6c65742063616e6e6f74206265207a65726f206164647265604082015261737360f01b606082015260800190565b60208082526025908201527f45524332303a2064656372656173656420616c6c6f77616e63652062656c6f77604082015264207a65726f60d81b606082015260800190565b90815260200190565b600060a082018783526020878185015260a0604085015281875180845260c0860191508289019350845b8181101561253c5784516001600160a01b031683529383019391830191600101612517565b50506001600160a01b03969096166060850152505050608001529392505050565b948552602085019390935260408401919091526060830152608082015260a00190565b60ff91909116815260200190565b600082198211156125a1576125a1612637565b500190565b6000826125c157634e487b7160e01b81526012600452602481fd5b500490565b60008160001904831182151516156125e0576125e0612637565b500290565b6000828210156125f7576125f7612637565b500390565b60028104600182168061261057607f821691505b6020821081141561263157634e487b7160e01b600052602260045260246000fd5b50919050565b634e487b7160e01b600052601160045260246000fd5b6001600160a01b03811681146113b157600080fd5b80151581146113b157600080fdfea264697066735822122036b41cde8fe401e446277d3a07d95e1c53d8a45c56645080b93d5f452a864e8964736f6c63430008000033","opcodes":"PUSH1 0x80 PUSH1 0x40 MSTORE PUSH10 0xD3C21BCECCEDA1000000 PUSH1 0x8 SSTORE PUSH10 0x21E19E0C9BAB2400000 PUSH1 0x17 SSTORE CALLVALUE DUP1 ISZERO PUSH3 0x2D JUMPI PUSH1 0x0 DUP1 REVERT JUMPDEST POP PUSH1 0x40 MLOAD PUSH3 0x2E07 CODESIZE SUB DUP1 PUSH3 0x2E07 DUP4 CODECOPY DUP2 ADD PUSH1 0x40 DUP2 SWAP1 MSTORE PUSH3 0x50 SWAP2 PUSH3 0x62F JUMP JUMPDEST PUSH1 0x40 DUP1 MLOAD DUP1 DUP3 ADD DUP3 MSTORE PUSH1 0xF DUP2 MSTORE PUSH15 0x26BAB430B6B6B0B2102930B6BD30B7 PUSH1 0x89 SHL PUSH1 0x20 DUP1 DUP4 ADD SWAP2 DUP3 MSTORE DUP4 MLOAD DUP1 DUP6 ADD SWAP1 SWAP5 MSTORE PUSH1 0x5 DUP5 MSTORE PUSH5 0x1215195CDD PUSH1 0xDA SHL SWAP1 DUP5 ADD MSTORE DUP2 MLOAD SWAP2 SWAP3 SWAP2 PUSH3 0xA4 SWAP2 PUSH1 0x3 SWAP2 PUSH3 0x548 JUMP JUMPDEST POP DUP1 MLOAD PUSH3 0xBA SWAP1 PUSH1 0x4 SWAP1 PUSH1 0x20 DUP5 ADD SWAP1 PUSH3 0x548 JUMP JUMPDEST POP POP POP PUSH3 0xD7 PUSH3 0xD1 PUSH3 0x419 PUSH1 0x20 SHL PUSH1 0x20 SHR JUMP JUMPDEST PUSH3 0x41D JUMP JUMPDEST PUSH3 0xEB CALLER PUSH1 0x17 SLOAD PUSH3 0x46F PUSH1 0x20 SHL PUSH1 0x20 SHR JUMP JUMPDEST CALLER PUSH1 0x0 SWAP1 DUP2 MSTORE PUSH1 0x18 PUSH1 0x20 SWAP1 DUP2 MSTORE PUSH1 0x40 DUP1 DUP4 KECCAK256 DUP1 SLOAD PUSH1 0xFF NOT AND PUSH1 0x1 OR SWAP1 SSTORE DUP1 MLOAD PUSH4 0xC45A0155 PUSH1 0xE0 SHL DUP2 MSTORE SWAP1 MLOAD PUSH20 0xEDF6066A2B290C185783862C7F4776A2C8077AD1 SWAP4 SWAP3 DUP5 SWAP3 PUSH4 0xC45A0155 SWAP3 PUSH1 0x4 DUP1 DUP4 ADD SWAP4 SWAP3 DUP3 SWAP1 SUB ADD DUP2 DUP7 DUP1 EXTCODESIZE ISZERO DUP1 ISZERO PUSH3 0x151 JUMPI PUSH1 0x0 DUP1 REVERT JUMPDEST POP GAS STATICCALL ISZERO DUP1 ISZERO PUSH3 0x166 JUMPI RETURNDATASIZE PUSH1 0x0 DUP1 RETURNDATACOPY RETURNDATASIZE PUSH1 0x0 REVERT JUMPDEST POP POP POP POP PUSH1 0x40 MLOAD RETURNDATASIZE PUSH1 0x1F NOT PUSH1 0x1F DUP3 ADD AND DUP3 ADD DUP1 PUSH1 0x40 MSTORE POP DUP2 ADD SWAP1 PUSH3 0x18C SWAP2 SWAP1 PUSH3 0x60B JUMP JUMPDEST PUSH1 0x1 PUSH1 0x1 PUSH1 0xA0 SHL SUB AND PUSH4 0xC9C65396 ADDRESS DUP5 PUSH1 0x1 PUSH1 0x1 PUSH1 0xA0 SHL SUB AND PUSH4 0xAD5C4648 PUSH1 0x40 MLOAD DUP2 PUSH4 0xFFFFFFFF AND PUSH1 0xE0 SHL DUP2 MSTORE PUSH1 0x4 ADD PUSH1 0x20 PUSH1 0x40 MLOAD DUP1 DUP4 SUB DUP2 DUP7 DUP1 EXTCODESIZE ISZERO DUP1 ISZERO PUSH3 0x1D5 JUMPI PUSH1 0x0 DUP1 REVERT JUMPDEST POP GAS STATICCALL ISZERO DUP1 ISZERO PUSH3 0x1EA JUMPI RETURNDATASIZE PUSH1 0x0 DUP1 RETURNDATACOPY RETURNDATASIZE PUSH1 0x0 REVERT JUMPDEST POP POP POP POP PUSH1 0x40 MLOAD RETURNDATASIZE PUSH1 0x1F NOT PUSH1 0x1F DUP3 ADD AND DUP3 ADD DUP1 PUSH1 0x40 MSTORE POP DUP2 ADD SWAP1 PUSH3 0x210 SWAP2 SWAP1 PUSH3 0x60B JUMP JUMPDEST PUSH1 0x40 MLOAD DUP4 PUSH4 0xFFFFFFFF AND PUSH1 0xE0 SHL DUP2 MSTORE PUSH1 0x4 ADD PUSH3 0x22F SWAP3 SWAP2 SWAP1 PUSH3 0x695 JUMP JUMPDEST PUSH1 0x20 PUSH1 0x40 MLOAD DUP1 DUP4 SUB DUP2 PUSH1 0x0 DUP8 DUP1 EXTCODESIZE ISZERO DUP1 ISZERO PUSH3 0x24A JUMPI PUSH1 0x0 DUP1 REVERT JUMPDEST POP GAS CALL ISZERO DUP1 ISZERO PUSH3 0x25F JUMPI RETURNDATASIZE PUSH1 0x0 DUP1 RETURNDATACOPY RETURNDATASIZE PUSH1 0x0 REVERT JUMPDEST POP POP POP POP PUSH1 0x40 MLOAD RETURNDATASIZE PUSH1 0x1F NOT PUSH1 0x1F DUP3 ADD AND DUP3 ADD DUP1 PUSH1 0x40 MSTORE POP DUP2 ADD SWAP1 PUSH3 0x285 SWAP2 SWAP1 PUSH3 0x60B JUMP JUMPDEST PUSH1 0x6 DUP1 SLOAD PUSH1 0x1 PUSH1 0x1 PUSH1 0xA0 SHL SUB DUP1 DUP7 AND PUSH1 0x1 PUSH1 0x1 PUSH1 0xA0 SHL SUB NOT SWAP3 DUP4 AND OR SWAP1 SWAP3 SSTORE PUSH1 0x7 DUP1 SLOAD DUP4 DUP6 AND SWAP1 DUP4 AND OR SWAP1 SSTORE PUSH1 0x9 DUP1 SLOAD DUP14 DUP5 AND SWAP1 DUP4 AND OR SWAP1 SSTORE PUSH1 0xA DUP1 SLOAD SWAP3 DUP13 AND SWAP3 SWAP1 SWAP2 AND SWAP2 SWAP1 SWAP2 OR SWAP1 SSTORE PUSH1 0x40 DUP1 MLOAD PUSH1 0xA0 DUP1 DUP3 ADD DUP4 MSTORE DUP10 DUP3 MSTORE PUSH1 0x20 DUP1 DUP4 ADD DUP13 SWAP1 MSTORE DUP3 DUP5 ADD DUP10 SWAP1 MSTORE PUSH1 0x60 DUP1 DUP5 ADD DUP12 SWAP1 MSTORE PUSH1 0x80 SWAP4 DUP5 ADD DUP10 SWAP1 MSTORE PUSH1 0xB DUP13 SWAP1 SSTORE PUSH1 0xC DUP14 SWAP1 SSTORE PUSH1 0xD DUP11 SWAP1 SSTORE PUSH1 0xE DUP12 SWAP1 SSTORE PUSH1 0xF DUP10 SWAP1 SSTORE DUP5 MLOAD SWAP3 DUP4 ADD DUP6 MSTORE DUP12 DUP4 MSTORE SWAP1 DUP3 ADD DUP13 SWAP1 MSTORE SWAP3 DUP2 ADD DUP9 SWAP1 MSTORE SWAP2 DUP3 ADD DUP9 SWAP1 MSTORE ADD DUP5 SWAP1 MSTORE PUSH1 0x10 DUP8 SWAP1 SSTORE PUSH1 0x11 DUP9 SWAP1 SSTORE PUSH1 0x12 DUP6 SWAP1 SSTORE PUSH1 0x13 DUP7 SWAP1 SSTORE PUSH1 0x14 DUP5 SWAP1 SSTORE SWAP1 POP DUP3 DUP6 DUP6 PUSH3 0x35E DUP11 DUP11 PUSH3 0x6EF JUMP JUMPDEST PUSH3 0x36A SWAP2 SWAP1 PUSH3 0x6EF JUMP JUMPDEST PUSH3 0x376 SWAP2 SWAP1 PUSH3 0x6EF JUMP JUMPDEST PUSH3 0x382 SWAP2 SWAP1 PUSH3 0x6EF JUMP JUMPDEST PUSH1 0x15 SSTORE DUP3 DUP6 DUP6 PUSH3 0x394 DUP11 DUP11 PUSH3 0x6EF JUMP JUMPDEST PUSH3 0x3A0 SWAP2 SWAP1 PUSH3 0x6EF JUMP JUMPDEST PUSH3 0x3AC SWAP2 SWAP1 PUSH3 0x6EF JUMP JUMPDEST PUSH3 0x3B8 SWAP2 SWAP1 PUSH3 0x6EF JUMP JUMPDEST PUSH1 0x16 SSTORE POP POP ADDRESS PUSH1 0x0 SWAP1 DUP2 MSTORE PUSH1 0x18 PUSH1 0x20 MSTORE PUSH1 0x40 DUP1 DUP3 KECCAK256 DUP1 SLOAD PUSH1 0x1 PUSH1 0xFF NOT SWAP2 DUP3 AND DUP2 OR SWAP1 SWAP3 SSTORE PUSH1 0x9 SLOAD PUSH1 0x1 PUSH1 0x1 PUSH1 0xA0 SHL SUB SWAP1 DUP2 AND DUP6 MSTORE DUP4 DUP6 KECCAK256 DUP1 SLOAD DUP4 AND DUP5 OR SWAP1 SSTORE PUSH1 0xA SLOAD AND DUP5 MSTORE SWAP2 SWAP1 SWAP3 KECCAK256 DUP1 SLOAD SWAP1 SWAP2 AND SWAP1 SWAP2 OR SWAP1 SSTORE POP PUSH3 0x751 SWAP6 POP POP POP POP POP POP JUMP JUMPDEST CALLER SWAP1 JUMP JUMPDEST PUSH1 0x5 DUP1 SLOAD PUSH1 0x1 PUSH1 0x1 PUSH1 0xA0 SHL SUB DUP4 DUP2 AND PUSH1 0x1 PUSH1 0x1 PUSH1 0xA0 SHL SUB NOT DUP4 AND DUP2 OR SWAP1 SWAP4 SSTORE PUSH1 0x40 MLOAD SWAP2 AND SWAP2 SWAP1 DUP3 SWAP1 PUSH32 0x8BE0079C531659141344CD1FD0A4F28419497F9722A3DAAFE3B4186F6B6457E0 SWAP1 PUSH1 0x0 SWAP1 LOG3 POP POP JUMP JUMPDEST PUSH1 0x1 PUSH1 0x1 PUSH1 0xA0 SHL SUB DUP3 AND PUSH3 0x4A1 JUMPI PUSH1 0x40 MLOAD PUSH3 0x461BCD PUSH1 0xE5 SHL DUP2 MSTORE PUSH1 0x4 ADD PUSH3 0x498 SWAP1 PUSH3 0x6AF JUMP JUMPDEST PUSH1 0x40 MLOAD DUP1 SWAP2 SUB SWAP1 REVERT JUMPDEST PUSH3 0x4AF PUSH1 0x0 DUP4 DUP4 PUSH3 0x543 JUMP JUMPDEST DUP1 PUSH1 0x2 PUSH1 0x0 DUP3 DUP3 SLOAD PUSH3 0x4C3 SWAP2 SWAP1 PUSH3 0x6EF JUMP JUMPDEST SWAP1 SWAP2 SSTORE POP POP PUSH1 0x1 PUSH1 0x1 PUSH1 0xA0 SHL SUB DUP3 AND PUSH1 0x0 SWAP1 DUP2 MSTORE PUSH1 0x20 DUP2 SWAP1 MSTORE PUSH1 0x40 DUP2 KECCAK256 DUP1 SLOAD DUP4 SWAP3 SWAP1 PUSH3 0x4F2 SWAP1 DUP5 SWAP1 PUSH3 0x6EF JUMP JUMPDEST SWAP1 SWAP2 SSTORE POP POP PUSH1 0x40 MLOAD PUSH1 0x1 PUSH1 0x1 PUSH1 0xA0 SHL SUB DUP4 AND SWAP1 PUSH1 0x0 SWAP1 PUSH32 0xDDF252AD1BE2C89B69C2B068FC378DAA952BA7F163C4A11628F55A4DF523B3EF SWAP1 PUSH3 0x537 SWAP1 DUP6 SWAP1 PUSH3 0x6E6 JUMP JUMPDEST PUSH1 0x40 MLOAD DUP1 SWAP2 SUB SWAP1 LOG3 POP POP JUMP JUMPDEST POP POP POP JUMP JUMPDEST DUP3 DUP1 SLOAD PUSH3 0x556 SWAP1 PUSH3 0x714 JUMP JUMPDEST SWAP1 PUSH1 0x0 MSTORE PUSH1 0x20 PUSH1 0x0 KECCAK256 SWAP1 PUSH1 0x1F ADD PUSH1 0x20 SWAP1 DIV DUP2 ADD SWAP3 DUP3 PUSH3 0x57A JUMPI PUSH1 0x0 DUP6 SSTORE PUSH3 0x5C5 JUMP JUMPDEST DUP3 PUSH1 0x1F LT PUSH3 0x595 JUMPI DUP1 MLOAD PUSH1 0xFF NOT AND DUP4 DUP1 ADD OR DUP6 SSTORE PUSH3 0x5C5 JUMP JUMPDEST DUP3 DUP1 ADD PUSH1 0x1 ADD DUP6 SSTORE DUP3 ISZERO PUSH3 0x5C5 JUMPI SWAP2 DUP3 ADD JUMPDEST DUP3 DUP2 GT ISZERO PUSH3 0x5C5 JUMPI DUP3 MLOAD DUP3 SSTORE SWAP2 PUSH1 0x20 ADD SWAP2 SWAP1 PUSH1 0x1 ADD SWAP1 PUSH3 0x5A8 JUMP JUMPDEST POP PUSH3 0x5D3 SWAP3 SWAP2 POP PUSH3 0x5D7 JUMP JUMPDEST POP SWAP1 JUMP JUMPDEST JUMPDEST DUP1 DUP3 GT ISZERO PUSH3 0x5D3 JUMPI PUSH1 0x0 DUP2 SSTORE PUSH1 0x1 ADD PUSH3 0x5D8 JUMP JUMPDEST DUP1 MLOAD PUSH1 0x1 PUSH1 0x1 PUSH1 0xA0 SHL SUB DUP2 AND DUP2 EQ PUSH3 0x606 JUMPI PUSH1 0x0 DUP1 REVERT JUMPDEST SWAP2 SWAP1 POP JUMP JUMPDEST PUSH1 0x0 PUSH1 0x20 DUP3 DUP5 SUB SLT ISZERO PUSH3 0x61D JUMPI DUP1 DUP2 REVERT JUMPDEST PUSH3 0x628 DUP3 PUSH3 0x5EE JUMP JUMPDEST SWAP4 SWAP3 POP POP POP JUMP JUMPDEST PUSH1 0x0 DUP1 PUSH1 0x0 DUP1 PUSH1 0x0 DUP1 PUSH1 0x0 PUSH1 0xE0 DUP9 DUP11 SUB SLT ISZERO PUSH3 0x64A JUMPI DUP3 DUP4 REVERT JUMPDEST PUSH3 0x655 DUP9 PUSH3 0x5EE JUMP JUMPDEST SWAP7 POP PUSH3 0x665 PUSH1 0x20 DUP10 ADD PUSH3 0x5EE JUMP JUMPDEST PUSH1 0x40 DUP10 ADD MLOAD PUSH1 0x60 DUP11 ADD MLOAD PUSH1 0x80 DUP12 ADD MLOAD PUSH1 0xA0 DUP13 ADD MLOAD PUSH1 0xC0 SWAP1 SWAP13 ADD MLOAD SWAP11 SWAP14 SWAP4 SWAP13 POP SWAP2 SWAP11 SWAP1 SWAP10 SWAP2 SWAP9 POP SWAP7 POP SWAP5 POP SWAP3 POP POP POP JUMP JUMPDEST PUSH1 0x1 PUSH1 0x1 PUSH1 0xA0 SHL SUB SWAP3 DUP4 AND DUP2 MSTORE SWAP2 AND PUSH1 0x20 DUP3 ADD MSTORE PUSH1 0x40 ADD SWAP1 JUMP JUMPDEST PUSH1 0x20 DUP1 DUP3 MSTORE PUSH1 0x1F SWAP1 DUP3 ADD MSTORE PUSH32 0x45524332303A206D696E7420746F20746865207A65726F206164647265737300 PUSH1 0x40 DUP3 ADD MSTORE PUSH1 0x60 ADD SWAP1 JUMP JUMPDEST SWAP1 DUP2 MSTORE PUSH1 0x20 ADD SWAP1 JUMP JUMPDEST PUSH1 0x0 DUP3 NOT DUP3 GT ISZERO PUSH3 0x70F JUMPI PUSH4 0x4E487B71 PUSH1 0xE0 SHL DUP2 MSTORE PUSH1 0x11 PUSH1 0x4 MSTORE PUSH1 0x24 DUP2 REVERT JUMPDEST POP ADD SWAP1 JUMP JUMPDEST PUSH1 0x2 DUP2 DIV PUSH1 0x1 DUP3 AND DUP1 PUSH3 0x729 JUMPI PUSH1 0x7F DUP3 AND SWAP2 POP JUMPDEST PUSH1 0x20 DUP3 LT DUP2 EQ ISZERO PUSH3 0x74B JUMPI PUSH4 0x4E487B71 PUSH1 0xE0 SHL PUSH1 0x0 MSTORE PUSH1 0x22 PUSH1 0x4 MSTORE PUSH1 0x24 PUSH1 0x0 REVERT JUMPDEST POP SWAP2 SWAP1 POP JUMP JUMPDEST PUSH2 0x26A6 DUP1 PUSH3 0x761 PUSH1 0x0 CODECOPY PUSH1 0x0 RETURN INVALID PUSH1 0x80 PUSH1 0x40 MSTORE PUSH1 0x4 CALLDATASIZE LT PUSH2 0x208 JUMPI PUSH1 0x0 CALLDATALOAD PUSH1 0xE0 SHR DUP1 PUSH4 0x715018A6 GT PUSH2 0x118 JUMPI DUP1 PUSH4 0xA8AA1B31 GT PUSH2 0xA0 JUMPI DUP1 PUSH4 0xDD62ED3E GT PUSH2 0x6F JUMPI DUP1 PUSH4 0xDD62ED3E EQ PUSH2 0x58C JUMPI DUP1 PUSH4 0xE01AF92C EQ PUSH2 0x5AC JUMPI DUP1 PUSH4 0xF2FDE38B EQ PUSH2 0x5CC JUMPI DUP1 PUSH4 0xF66895A3 EQ PUSH2 0x5EC JUMPI DUP1 PUSH4 0xF887EA40 EQ PUSH2 0x601 JUMPI PUSH2 0x20F JUMP JUMPDEST DUP1 PUSH4 0xA8AA1B31 EQ PUSH2 0x517 JUMPI DUP1 PUSH4 0xA9059CBB EQ PUSH2 0x52C JUMPI DUP1 PUSH4 0xC791FC54 EQ PUSH2 0x54C JUMPI DUP1 PUSH4 0xDBE66CA0 EQ PUSH2 0x56C JUMPI PUSH2 0x20F JUMP JUMPDEST DUP1 PUSH4 0x8DA5CB5B GT PUSH2 0xE7 JUMPI DUP1 PUSH4 0x8DA5CB5B EQ PUSH2 0x48D JUMPI DUP1 PUSH4 0x95D89B41 EQ PUSH2 0x4A2 JUMPI DUP1 PUSH4 0x9AED7370 EQ PUSH2 0x4B7 JUMPI DUP1 PUSH4 0x9D0014B1 EQ PUSH2 0x4D7 JUMPI DUP1 PUSH4 0xA457C2D7 EQ PUSH2 0x4F7 JUMPI PUSH2 0x20F JUMP JUMPDEST DUP1 PUSH4 0x715018A6 EQ PUSH2 0x428 JUMPI DUP1 PUSH4 0x75F0A874 EQ PUSH2 0x43D JUMPI DUP1 PUSH4 0x8091F3BF EQ PUSH2 0x452 JUMPI DUP1 PUSH4 0x864701A5 EQ PUSH2 0x467 JUMPI PUSH2 0x20F JUMP JUMPDEST DUP1 PUSH4 0x39509351 GT PUSH2 0x19B JUMPI DUP1 PUSH4 0x59927044 GT PUSH2 0x16A JUMPI DUP1 PUSH4 0x59927044 EQ PUSH2 0x39C JUMPI DUP1 PUSH4 0x5D098B38 EQ PUSH2 0x3BE JUMPI DUP1 PUSH4 0x67C45349 EQ PUSH2 0x3DE JUMPI DUP1 PUSH4 0x6DDD1713 EQ PUSH2 0x3F3 JUMPI DUP1 PUSH4 0x70A08231 EQ PUSH2 0x408 JUMPI PUSH2 0x20F JUMP JUMPDEST DUP1 PUSH4 0x39509351 EQ PUSH2 0x31C JUMPI DUP1 PUSH4 0x40AC48D3 EQ PUSH2 0x33C JUMPI DUP1 PUSH4 0x45BB0A11 EQ PUSH2 0x35C JUMPI DUP1 PUSH4 0x590FFDCE EQ PUSH2 0x37C JUMPI PUSH2 0x20F JUMP JUMPDEST DUP1 PUSH4 0x18160DDD GT PUSH2 0x1D7 JUMPI DUP1 PUSH4 0x18160DDD EQ PUSH2 0x2A5 JUMPI DUP1 PUSH4 0x23B872DD EQ PUSH2 0x2BA JUMPI DUP1 PUSH4 0x25B86EDF EQ PUSH2 0x2DA JUMPI DUP1 PUSH4 0x313CE567 EQ PUSH2 0x2FA JUMPI PUSH2 0x20F JUMP JUMPDEST DUP1 PUSH4 0x1339C21 EQ PUSH2 0x214 JUMPI DUP1 PUSH4 0x445B667 EQ PUSH2 0x22B JUMPI DUP1 PUSH4 0x6FDDE03 EQ PUSH2 0x256 JUMPI DUP1 PUSH4 0x95EA7B3 EQ PUSH2 0x278 JUMPI PUSH2 0x20F JUMP JUMPDEST CALLDATASIZE PUSH2 0x20F JUMPI STOP JUMPDEST PUSH1 0x0 DUP1 REVERT JUMPDEST CALLVALUE DUP1 ISZERO PUSH2 0x220 JUMPI PUSH1 0x0 DUP1 REVERT JUMPDEST POP PUSH2 0x229 PUSH2 0x616 JUMP JUMPDEST STOP JUMPDEST CALLVALUE DUP1 ISZERO PUSH2 0x237 JUMPI PUSH1 0x0 DUP1 REVERT JUMPDEST POP PUSH2 0x240 PUSH2 0x6D5 JUMP JUMPDEST PUSH1 0x40 MLOAD PUSH2 0x24D SWAP2 SWAP1 PUSH2 0x24E4 JUMP JUMPDEST PUSH1 0x40 MLOAD DUP1 SWAP2 SUB SWAP1 RETURN JUMPDEST CALLVALUE DUP1 ISZERO PUSH2 0x262 JUMPI PUSH1 0x0 DUP1 REVERT JUMPDEST POP PUSH2 0x26B PUSH2 0x6DB JUMP JUMPDEST PUSH1 0x40 MLOAD PUSH2 0x24D SWAP2 SWAP1 PUSH2 0x1EF1 JUMP JUMPDEST CALLVALUE DUP1 ISZERO PUSH2 0x284 JUMPI PUSH1 0x0 DUP1 REVERT JUMPDEST POP PUSH2 0x298 PUSH2 0x293 CALLDATASIZE PUSH1 0x4 PUSH2 0x1D81 JUMP JUMPDEST PUSH2 0x76D JUMP JUMPDEST PUSH1 0x40 MLOAD PUSH2 0x24D SWAP2 SWAP1 PUSH2 0x1EE6 JUMP JUMPDEST CALLVALUE DUP1 ISZERO PUSH2 0x2B1 JUMPI PUSH1 0x0 DUP1 REVERT JUMPDEST POP PUSH2 0x240 PUSH2 0x78A JUMP JUMPDEST CALLVALUE DUP1 ISZERO PUSH2 0x2C6 JUMPI PUSH1 0x0 DUP1 REVERT JUMPDEST POP PUSH2 0x298 PUSH2 0x2D5 CALLDATASIZE PUSH1 0x4 PUSH2 0x1D14 JUMP JUMPDEST PUSH2 0x790 JUMP JUMPDEST CALLVALUE DUP1 ISZERO PUSH2 0x2E6 JUMPI PUSH1 0x0 DUP1 REVERT JUMPDEST POP PUSH2 0x298 PUSH2 0x2F5 CALLDATASIZE PUSH1 0x4 PUSH2 0x1CDC JUMP JUMPDEST PUSH2 0x827 JUMP JUMPDEST CALLVALUE DUP1 ISZERO PUSH2 0x306 JUMPI PUSH1 0x0 DUP1 REVERT JUMPDEST POP PUSH2 0x30F PUSH2 0x9AC JUMP JUMPDEST PUSH1 0x40 MLOAD PUSH2 0x24D SWAP2 SWAP1 PUSH2 0x2580 JUMP JUMPDEST CALLVALUE DUP1 ISZERO PUSH2 0x328 JUMPI PUSH1 0x0 DUP1 REVERT JUMPDEST POP PUSH2 0x298 PUSH2 0x337 CALLDATASIZE PUSH1 0x4 PUSH2 0x1D81 JUMP JUMPDEST PUSH2 0x9B1 JUMP JUMPDEST CALLVALUE DUP1 ISZERO PUSH2 0x348 JUMPI PUSH1 0x0 DUP1 REVERT JUMPDEST POP PUSH2 0x229 PUSH2 0x357 CALLDATASIZE PUSH1 0x4 PUSH2 0x1E41 JUMP JUMPDEST PUSH2 0xA00 JUMP JUMPDEST CALLVALUE DUP1 ISZERO PUSH2 0x368 JUMPI PUSH1 0x0 DUP1 REVERT JUMPDEST POP PUSH2 0x229 PUSH2 0x377 CALLDATASIZE PUSH1 0x4 PUSH2 0x1C9D JUMP JUMPDEST PUSH2 0xAFF JUMP JUMPDEST CALLVALUE DUP1 ISZERO PUSH2 0x388 JUMPI PUSH1 0x0 DUP1 REVERT JUMPDEST POP PUSH2 0x229 PUSH2 0x397 CALLDATASIZE PUSH1 0x4 PUSH2 0x1D54 JUMP JUMPDEST PUSH2 0xBC7 JUMP JUMPDEST CALLVALUE DUP1 ISZERO PUSH2 0x3A8 JUMPI PUSH1 0x0 DUP1 REVERT JUMPDEST POP PUSH2 0x3B1 PUSH2 0xC54 JUMP JUMPDEST PUSH1 0x40 MLOAD PUSH2 0x24D SWAP2 SWAP1 PUSH2 0x1E7E JUMP JUMPDEST CALLVALUE DUP1 ISZERO PUSH2 0x3CA JUMPI PUSH1 0x0 DUP1 REVERT JUMPDEST POP PUSH2 0x229 PUSH2 0x3D9 CALLDATASIZE PUSH1 0x4 PUSH2 0x1C9D JUMP JUMPDEST PUSH2 0xC63 JUMP JUMPDEST CALLVALUE DUP1 ISZERO PUSH2 0x3EA JUMPI PUSH1 0x0 DUP1 REVERT JUMPDEST POP PUSH2 0x229 PUSH2 0xD2B JUMP JUMPDEST CALLVALUE DUP1 ISZERO PUSH2 0x3FF JUMPI PUSH1 0x0 DUP1 REVERT JUMPDEST POP PUSH2 0x298 PUSH2 0xE87 JUMP JUMPDEST CALLVALUE DUP1 ISZERO PUSH2 0x414 JUMPI PUSH1 0x0 DUP1 REVERT JUMPDEST POP PUSH2 0x240 PUSH2 0x423 CALLDATASIZE PUSH1 0x4 PUSH2 0x1C9D JUMP JUMPDEST PUSH2 0xE97 JUMP JUMPDEST CALLVALUE DUP1 ISZERO PUSH2 0x434 JUMPI PUSH1 0x0 DUP1 REVERT JUMPDEST POP PUSH2 0x229 PUSH2 0xEB2 JUMP JUMPDEST CALLVALUE DUP1 ISZERO PUSH2 0x449 JUMPI PUSH1 0x0 DUP1 REVERT JUMPDEST POP PUSH2 0x3B1 PUSH2 0xEFD JUMP JUMPDEST CALLVALUE DUP1 ISZERO PUSH2 0x45E JUMPI PUSH1 0x0 DUP1 REVERT JUMPDEST POP PUSH2 0x298 PUSH2 0xF0C JUMP JUMPDEST CALLVALUE DUP1 ISZERO PUSH2 0x473 JUMPI PUSH1 0x0 DUP1 REVERT JUMPDEST POP PUSH2 0x47C PUSH2 0xF1C JUMP JUMPDEST PUSH1 0x40 MLOAD PUSH2 0x24D SWAP6 SWAP5 SWAP4 SWAP3 SWAP2 SWAP1 PUSH2 0x255D JUMP JUMPDEST CALLVALUE DUP1 ISZERO PUSH2 0x499 JUMPI PUSH1 0x0 DUP1 REVERT JUMPDEST POP PUSH2 0x3B1 PUSH2 0xF2E JUMP JUMPDEST CALLVALUE DUP1 ISZERO PUSH2 0x4AE JUMPI PUSH1 0x0 DUP1 REVERT JUMPDEST POP PUSH2 0x26B PUSH2 0xF3D JUMP JUMPDEST CALLVALUE DUP1 ISZERO PUSH2 0x4C3 JUMPI PUSH1 0x0 DUP1 REVERT JUMPDEST POP PUSH2 0x229 PUSH2 0x4D2 CALLDATASIZE PUSH1 0x4 PUSH2 0x1DE4 JUMP JUMPDEST PUSH2 0xF4C JUMP JUMPDEST CALLVALUE DUP1 ISZERO PUSH2 0x4E3 JUMPI PUSH1 0x0 DUP1 REVERT JUMPDEST POP PUSH2 0x229 PUSH2 0x4F2 CALLDATASIZE PUSH1 0x4 PUSH2 0x1DE4 JUMP JUMPDEST PUSH2 0xFFC JUMP JUMPDEST CALLVALUE DUP1 ISZERO PUSH2 0x503 JUMPI PUSH1 0x0 DUP1 REVERT JUMPDEST POP PUSH2 0x298 PUSH2 0x512 CALLDATASIZE PUSH1 0x4 PUSH2 0x1D81 JUMP JUMPDEST PUSH2 0x10C1 JUMP JUMPDEST CALLVALUE DUP1 ISZERO PUSH2 0x523 JUMPI PUSH1 0x0 DUP1 REVERT JUMPDEST POP PUSH2 0x3B1 PUSH2 0x113C JUMP JUMPDEST CALLVALUE DUP1 ISZERO PUSH2 0x538 JUMPI PUSH1 0x0 DUP1 REVERT JUMPDEST POP PUSH2 0x298 PUSH2 0x547 CALLDATASIZE PUSH1 0x4 PUSH2 0x1D81 JUMP JUMPDEST PUSH2 0x114B JUMP JUMPDEST CALLVALUE DUP1 ISZERO PUSH2 0x558 JUMPI PUSH1 0x0 DUP1 REVERT JUMPDEST POP PUSH2 0x229 PUSH2 0x567 CALLDATASIZE PUSH1 0x4 PUSH2 0x1E41 JUMP JUMPDEST PUSH2 0x115F JUMP JUMPDEST CALLVALUE DUP1 ISZERO PUSH2 0x578 JUMPI PUSH1 0x0 DUP1 REVERT JUMPDEST POP PUSH2 0x298 PUSH2 0x587 CALLDATASIZE PUSH1 0x4 PUSH2 0x1C9D JUMP JUMPDEST PUSH2 0x1281 JUMP JUMPDEST CALLVALUE DUP1 ISZERO PUSH2 0x598 JUMPI PUSH1 0x0 DUP1 REVERT JUMPDEST POP PUSH2 0x240 PUSH2 0x5A7 CALLDATASIZE PUSH1 0x4 PUSH2 0x1CDC JUMP JUMPDEST PUSH2 0x1296 JUMP JUMPDEST CALLVALUE DUP1 ISZERO PUSH2 0x5B8 JUMPI PUSH1 0x0 DUP1 REVERT JUMPDEST POP PUSH2 0x229 PUSH2 0x5C7 CALLDATASIZE PUSH1 0x4 PUSH2 0x1DAC JUMP JUMPDEST PUSH2 0x12C1 JUMP JUMPDEST CALLVALUE DUP1 ISZERO PUSH2 0x5D8 JUMPI PUSH1 0x0 DUP1 REVERT JUMPDEST POP PUSH2 0x229 PUSH2 0x5E7 CALLDATASIZE PUSH1 0x4 PUSH2 0x1C9D JUMP JUMPDEST PUSH2 0x1343 JUMP JUMPDEST CALLVALUE DUP1 ISZERO PUSH2 0x5F8 JUMPI PUSH1 0x0 DUP1 REVERT JUMPDEST POP PUSH2 0x47C PUSH2 0x13B4 JUMP JUMPDEST CALLVALUE DUP1 ISZERO PUSH2 0x60D JUMPI PUSH1 0x0 DUP1 REVERT JUMPDEST POP PUSH2 0x3B1 PUSH2 0x13C6 JUMP JUMPDEST PUSH2 0x61E PUSH2 0x13D5 JUMP JUMPDEST PUSH1 0x1 PUSH1 0x1 PUSH1 0xA0 SHL SUB AND PUSH2 0x62F PUSH2 0xF2E JUMP JUMPDEST PUSH1 0x1 PUSH1 0x1 PUSH1 0xA0 SHL SUB AND EQ PUSH2 0x65E JUMPI PUSH1 0x40 MLOAD PUSH3 0x461BCD PUSH1 0xE5 SHL DUP2 MSTORE PUSH1 0x4 ADD PUSH2 0x655 SWAP1 PUSH2 0x2356 JUMP JUMPDEST PUSH1 0x40 MLOAD DUP1 SWAP2 SUB SWAP1 REVERT JUMPDEST PUSH1 0x7 SLOAD PUSH1 0x1 PUSH1 0xB0 SHL SWAP1 DIV PUSH1 0xFF AND ISZERO PUSH2 0x688 JUMPI PUSH1 0x40 MLOAD PUSH3 0x461BCD PUSH1 0xE5 SHL DUP2 MSTORE PUSH1 0x4 ADD PUSH2 0x655 SWAP1 PUSH2 0x1F44 JUMP JUMPDEST PUSH1 0x7 DUP1 SLOAD PUSH1 0xFF PUSH1 0xA8 SHL NOT PUSH1 0xFF PUSH1 0xB0 SHL NOT SWAP1 SWAP2 AND PUSH1 0x1 PUSH1 0xB0 SHL OR AND PUSH1 0x1 PUSH1 0xA8 SHL OR SWAP1 SSTORE PUSH1 0x40 MLOAD PUSH32 0xBA61A96074B3D636EDEEE92CADDC86293C917D5B6818B7D3698BB52E02EC86C8 SWAP1 PUSH1 0x0 SWAP1 LOG1 JUMP JUMPDEST PUSH1 0x8 SLOAD DUP2 JUMP JUMPDEST PUSH1 0x60 PUSH1 0x3 DUP1 SLOAD PUSH2 0x6EA SWAP1 PUSH2 0x25FC JUMP JUMPDEST DUP1 PUSH1 0x1F ADD PUSH1 0x20 DUP1 SWAP2 DIV MUL PUSH1 0x20 ADD PUSH1 0x40 MLOAD SWAP1 DUP2 ADD PUSH1 0x40 MSTORE DUP1 SWAP3 SWAP2 SWAP1 DUP2 DUP2 MSTORE PUSH1 0x20 ADD DUP3 DUP1 SLOAD PUSH2 0x716 SWAP1 PUSH2 0x25FC JUMP JUMPDEST DUP1 ISZERO PUSH2 0x763 JUMPI DUP1 PUSH1 0x1F LT PUSH2 0x738 JUMPI PUSH2 0x100 DUP1 DUP4 SLOAD DIV MUL DUP4 MSTORE SWAP2 PUSH1 0x20 ADD SWAP2 PUSH2 0x763 JUMP JUMPDEST DUP3 ADD SWAP2 SWAP1 PUSH1 0x0 MSTORE PUSH1 0x20 PUSH1 0x0 KECCAK256 SWAP1 JUMPDEST DUP2 SLOAD DUP2 MSTORE SWAP1 PUSH1 0x1 ADD SWAP1 PUSH1 0x20 ADD DUP1 DUP4 GT PUSH2 0x746 JUMPI DUP3 SWAP1 SUB PUSH1 0x1F AND DUP3 ADD SWAP2 JUMPDEST POP POP POP POP POP SWAP1 POP SWAP1 JUMP JUMPDEST PUSH1 0x0 PUSH2 0x781 PUSH2 0x77A PUSH2 0x13D5 JUMP JUMPDEST DUP5 DUP5 PUSH2 0x13D9 JUMP JUMPDEST POP PUSH1 0x1 SWAP3 SWAP2 POP POP JUMP JUMPDEST PUSH1 0x2 SLOAD SWAP1 JUMP JUMPDEST PUSH1 0x0 PUSH2 0x79D DUP5 DUP5 DUP5 PUSH2 0x148D JUMP JUMPDEST PUSH1 0x1 PUSH1 0x1 PUSH1 0xA0 SHL SUB DUP5 AND PUSH1 0x0 SWAP1 DUP2 MSTORE PUSH1 0x1 PUSH1 0x20 MSTORE PUSH1 0x40 DUP2 KECCAK256 DUP2 PUSH2 0x7BE PUSH2 0x13D5 JUMP JUMPDEST PUSH1 0x1 PUSH1 0x1 PUSH1 0xA0 SHL SUB AND PUSH1 0x1 PUSH1 0x1 PUSH1 0xA0 SHL SUB AND DUP2 MSTORE PUSH1 0x20 ADD SWAP1 DUP2 MSTORE PUSH1 0x20 ADD PUSH1 0x0 KECCAK256 SLOAD SWAP1 POP DUP3 DUP2 LT ISZERO PUSH2 0x801 JUMPI PUSH1 0x40 MLOAD PUSH3 0x461BCD PUSH1 0xE5 SHL DUP2 MSTORE PUSH1 0x4 ADD PUSH2 0x655 SWAP1 PUSH2 0x230E JUMP JUMPDEST PUSH2 0x81C DUP6 PUSH2 0x80D PUSH2 0x13D5 JUMP JUMPDEST PUSH2 0x817 DUP7 DUP6 PUSH2 0x25E5 JUMP JUMPDEST PUSH2 0x13D9 JUMP JUMPDEST POP PUSH1 0x1 SWAP5 SWAP4 POP POP POP POP JUMP JUMPDEST PUSH1 0x0 PUSH2 0x831 PUSH2 0x13D5 JUMP JUMPDEST PUSH1 0x1 PUSH1 0x1 PUSH1 0xA0 SHL SUB AND PUSH2 0x842 PUSH2 0xF2E JUMP JUMPDEST PUSH1 0x1 PUSH1 0x1 PUSH1 0xA0 SHL SUB AND EQ PUSH2 0x868 JUMPI PUSH1 0x40 MLOAD PUSH3 0x461BCD PUSH1 0xE5 SHL DUP2 MSTORE PUSH1 0x4 ADD PUSH2 0x655 SWAP1 PUSH2 0x2356 JUMP JUMPDEST PUSH1 0x40 MLOAD PUSH4 0x70A08231 PUSH1 0xE0 SHL DUP2 MSTORE PUSH1 0x0 SWAP1 PUSH1 0x1 PUSH1 0x1 PUSH1 0xA0 SHL SUB DUP6 AND SWAP1 PUSH4 0x70A08231 SWAP1 PUSH2 0x897 SWAP1 ADDRESS SWAP1 PUSH1 0x4 ADD PUSH2 0x1E7E JUMP JUMPDEST PUSH1 0x20 PUSH1 0x40 MLOAD DUP1 DUP4 SUB DUP2 DUP7 DUP1 EXTCODESIZE ISZERO DUP1 ISZERO PUSH2 0x8AF JUMPI PUSH1 0x0 DUP1 REVERT JUMPDEST POP GAS STATICCALL ISZERO DUP1 ISZERO PUSH2 0x8C3 JUMPI RETURNDATASIZE PUSH1 0x0 DUP1 RETURNDATACOPY RETURNDATASIZE PUSH1 0x0 REVERT JUMPDEST POP POP POP POP PUSH1 0x40 MLOAD RETURNDATASIZE PUSH1 0x1F NOT PUSH1 0x1F DUP3 ADD AND DUP3 ADD DUP1 PUSH1 0x40 MSTORE POP DUP2 ADD SWAP1 PUSH2 0x8E7 SWAP2 SWAP1 PUSH2 0x1DFC JUMP JUMPDEST PUSH1 0x40 MLOAD PUSH4 0xA9059CBB PUSH1 0xE0 SHL DUP2 MSTORE SWAP1 SWAP2 POP PUSH1 0x1 PUSH1 0x1 PUSH1 0xA0 SHL SUB DUP6 AND SWAP1 PUSH4 0xA9059CBB SWAP1 PUSH2 0x918 SWAP1 DUP7 SWAP1 DUP6 SWAP1 PUSH1 0x4 ADD PUSH2 0x1E92 JUMP JUMPDEST PUSH1 0x20 PUSH1 0x40 MLOAD DUP1 DUP4 SUB DUP2 PUSH1 0x0 DUP8 DUP1 EXTCODESIZE ISZERO DUP1 ISZERO PUSH2 0x932 JUMPI PUSH1 0x0 DUP1 REVERT JUMPDEST POP GAS CALL ISZERO DUP1 ISZERO PUSH2 0x946 JUMPI RETURNDATASIZE PUSH1 0x0 DUP1 RETURNDATACOPY RETURNDATASIZE PUSH1 0x0 REVERT JUMPDEST POP POP POP POP PUSH1 0x40 MLOAD RETURNDATASIZE PUSH1 0x1F NOT PUSH1 0x1F DUP3 ADD AND DUP3 ADD DUP1 PUSH1 0x40 MSTORE POP DUP2 ADD SWAP1 PUSH2 0x96A SWAP2 SWAP1 PUSH2 0x1DC8 JUMP JUMPDEST SWAP2 POP PUSH32 0xDEDA980967FCEAD7B61E78AC46A4DA14274AF29E894D4D61E8B81EC38AB3E438 DUP5 DUP3 PUSH1 0x40 MLOAD PUSH2 0x99D SWAP3 SWAP2 SWAP1 PUSH2 0x1E92 JUMP JUMPDEST PUSH1 0x40 MLOAD DUP1 SWAP2 SUB SWAP1 LOG1 POP SWAP3 SWAP2 POP POP JUMP JUMPDEST PUSH1 0x12 SWAP1 JUMP JUMPDEST PUSH1 0x0 PUSH2 0x781 PUSH2 0x9BE PUSH2 0x13D5 JUMP JUMPDEST DUP5 DUP5 PUSH1 0x1 PUSH1 0x0 PUSH2 0x9CC PUSH2 0x13D5 JUMP JUMPDEST PUSH1 0x1 PUSH1 0x1 PUSH1 0xA0 SHL SUB SWAP1 DUP2 AND DUP3 MSTORE PUSH1 0x20 DUP1 DUP4 ADD SWAP4 SWAP1 SWAP4 MSTORE PUSH1 0x40 SWAP2 DUP3 ADD PUSH1 0x0 SWAP1 DUP2 KECCAK256 SWAP2 DUP12 AND DUP2 MSTORE SWAP3 MSTORE SWAP1 KECCAK256 SLOAD PUSH2 0x817 SWAP2 SWAP1 PUSH2 0x258E JUMP JUMPDEST PUSH2 0xA08 PUSH2 0x13D5 JUMP JUMPDEST PUSH1 0x1 PUSH1 0x1 PUSH1 0xA0 SHL SUB AND PUSH2 0xA19 PUSH2 0xF2E JUMP JUMPDEST PUSH1 0x1 PUSH1 0x1 PUSH1 0xA0 SHL SUB AND EQ PUSH2 0xA3F JUMPI PUSH1 0x40 MLOAD PUSH3 0x461BCD PUSH1 0xE5 SHL DUP2 MSTORE PUSH1 0x4 ADD PUSH2 0x655 SWAP1 PUSH2 0x2356 JUMP JUMPDEST PUSH1 0x40 DUP1 MLOAD PUSH1 0xA0 DUP2 ADD DUP3 MSTORE DUP7 DUP2 MSTORE PUSH1 0x20 DUP2 ADD DUP7 SWAP1 MSTORE SWAP1 DUP2 ADD DUP5 SWAP1 MSTORE PUSH1 0x60 DUP2 ADD DUP4 SWAP1 MSTORE PUSH1 0x80 ADD DUP2 SWAP1 MSTORE PUSH1 0xB DUP6 SWAP1 SSTORE PUSH1 0xC DUP5 SWAP1 SSTORE PUSH1 0xD DUP4 SWAP1 SSTORE PUSH1 0xE DUP3 SWAP1 SSTORE PUSH1 0xF DUP2 SWAP1 SSTORE DUP1 DUP3 DUP5 PUSH2 0xA8C DUP8 DUP10 PUSH2 0x258E JUMP JUMPDEST PUSH2 0xA96 SWAP2 SWAP1 PUSH2 0x258E JUMP JUMPDEST PUSH2 0xAA0 SWAP2 SWAP1 PUSH2 0x258E JUMP JUMPDEST PUSH2 0xAAA SWAP2 SWAP1 PUSH2 0x258E JUMP JUMPDEST PUSH1 0x15 DUP2 SWAP1 SSTORE PUSH1 0x2D LT ISZERO PUSH2 0xACF JUMPI PUSH1 0x40 MLOAD PUSH3 0x461BCD PUSH1 0xE5 SHL DUP2 MSTORE PUSH1 0x4 ADD PUSH2 0x655 SWAP1 PUSH2 0x2107 JUMP JUMPDEST PUSH1 0x40 MLOAD PUSH32 0x5603F0CAB8983038FFB2C31E46A497A67322819231397B1A4EFF19E46E39851D SWAP1 PUSH1 0x0 SWAP1 LOG1 POP POP POP POP POP JUMP JUMPDEST PUSH2 0xB07 PUSH2 0x13D5 JUMP JUMPDEST PUSH1 0x1 PUSH1 0x1 PUSH1 0xA0 SHL SUB AND PUSH2 0xB18 PUSH2 0xF2E JUMP JUMPDEST PUSH1 0x1 PUSH1 0x1 PUSH1 0xA0 SHL SUB AND EQ PUSH2 0xB3E JUMPI PUSH1 0x40 MLOAD PUSH3 0x461BCD PUSH1 0xE5 SHL DUP2 MSTORE PUSH1 0x4 ADD PUSH2 0x655 SWAP1 PUSH2 0x2356 JUMP JUMPDEST PUSH1 0xA SLOAD PUSH1 0x1 PUSH1 0x1 PUSH1 0xA0 SHL SUB SWAP1 DUP2 AND PUSH1 0x0 SWAP1 DUP2 MSTORE PUSH1 0x18 PUSH1 0x20 MSTORE PUSH1 0x40 SWAP1 KECCAK256 DUP1 SLOAD PUSH1 0xFF NOT AND SWAP1 SSTORE DUP2 AND PUSH2 0xB80 JUMPI PUSH1 0x40 MLOAD PUSH3 0x461BCD PUSH1 0xE5 SHL DUP2 MSTORE PUSH1 0x4 ADD PUSH2 0x655 SWAP1 PUSH2 0x245D JUMP JUMPDEST PUSH1 0xA DUP1 SLOAD PUSH1 0x1 PUSH1 0x1 PUSH1 0xA0 SHL SUB NOT AND PUSH1 0x1 PUSH1 0x1 PUSH1 0xA0 SHL SUB DUP4 AND OR SWAP1 SSTORE PUSH1 0x40 MLOAD PUSH32 0x6F87157D12009FA6A48337B37087840B3DFC5CAA33DECACFB14494211B1B3E8D SWAP1 PUSH1 0x0 SWAP1 LOG1 POP JUMP JUMPDEST PUSH2 0xBCF PUSH2 0x13D5 JUMP JUMPDEST PUSH1 0x1 PUSH1 0x1 PUSH1 0xA0 SHL SUB AND PUSH2 0xBE0 PUSH2 0xF2E JUMP JUMPDEST PUSH1 0x1 PUSH1 0x1 PUSH1 0xA0 SHL SUB AND EQ PUSH2 0xC06 JUMPI PUSH1 0x40 MLOAD PUSH3 0x461BCD PUSH1 0xE5 SHL DUP2 MSTORE PUSH1 0x4 ADD PUSH2 0x655 SWAP1 PUSH2 0x2356 JUMP JUMPDEST PUSH1 0x1 PUSH1 0x1 PUSH1 0xA0 SHL SUB DUP3 AND PUSH1 0x0 SWAP1 DUP2 MSTORE PUSH1 0x18 PUSH1 0x20 MSTORE PUSH1 0x40 DUP1 DUP3 KECCAK256 DUP1 SLOAD PUSH1 0xFF NOT AND DUP5 ISZERO ISZERO OR SWAP1 SSTORE MLOAD PUSH32 0xD03E5AECC1463F851CB441202CC200CD8754891D6B125B332588DB1948D4CBED SWAP2 SWAP1 LOG1 POP POP JUMP JUMPDEST PUSH1 0xA SLOAD PUSH1 0x1 PUSH1 0x1 PUSH1 0xA0 SHL SUB AND DUP2 JUMP JUMPDEST PUSH2 0xC6B PUSH2 0x13D5 JUMP JUMPDEST PUSH1 0x1 PUSH1 0x1 PUSH1 0xA0 SHL SUB AND PUSH2 0xC7C PUSH2 0xF2E JUMP JUMPDEST PUSH1 0x1 PUSH1 0x1 PUSH1 0xA0 SHL SUB AND EQ PUSH2 0xCA2 JUMPI PUSH1 0x40 MLOAD PUSH3 0x461BCD PUSH1 0xE5 SHL DUP2 MSTORE PUSH1 0x4 ADD PUSH2 0x655 SWAP1 PUSH2 0x2356 JUMP JUMPDEST PUSH1 0x9 SLOAD PUSH1 0x1 PUSH1 0x1 PUSH1 0xA0 SHL SUB SWAP1 DUP2 AND PUSH1 0x0 SWAP1 DUP2 MSTORE PUSH1 0x18 PUSH1 0x20 MSTORE PUSH1 0x40 SWAP1 KECCAK256 DUP1 SLOAD PUSH1 0xFF NOT AND SWAP1 SSTORE DUP2 AND PUSH2 0xCE4 JUMPI PUSH1 0x40 MLOAD PUSH3 0x461BCD PUSH1 0xE5 SHL DUP2 MSTORE PUSH1 0x4 ADD PUSH2 0x655 SWAP1 PUSH2 0x2272 JUMP JUMPDEST PUSH1 0x9 DUP1 SLOAD PUSH1 0x1 PUSH1 0x1 PUSH1 0xA0 SHL SUB NOT AND PUSH1 0x1 PUSH1 0x1 PUSH1 0xA0 SHL SUB DUP4 AND OR SWAP1 SSTORE PUSH1 0x40 MLOAD PUSH32 0xECC84D499D57318161AB7EFFA4A1797C7500E9CCE582FCE989611566ACADB0E0 SWAP1 PUSH1 0x0 SWAP1 LOG1 POP JUMP JUMPDEST PUSH2 0xD33 PUSH2 0x13D5 JUMP JUMPDEST PUSH1 0x1 PUSH1 0x1 PUSH1 0xA0 SHL SUB AND PUSH2 0xD44 PUSH2 0xF2E JUMP JUMPDEST PUSH1 0x1 PUSH1 0x1 PUSH1 0xA0 SHL SUB AND EQ PUSH2 0xD6A JUMPI PUSH1 0x40 MLOAD PUSH3 0x461BCD PUSH1 0xE5 SHL DUP2 MSTORE PUSH1 0x4 ADD PUSH2 0x655 SWAP1 PUSH2 0x2356 JUMP JUMPDEST PUSH1 0x7 DUP1 SLOAD PUSH1 0xFF PUSH1 0xA0 SHL NOT AND PUSH1 0x1 PUSH1 0xA0 SHL OR SWAP1 SSTORE PUSH2 0xD8E PUSH2 0xD89 ADDRESS PUSH2 0xE97 JUMP JUMPDEST PUSH2 0x16AC JUMP JUMPDEST SELFBALANCE PUSH1 0x0 PUSH2 0xD9C PUSH1 0x2 DUP4 PUSH2 0x25A6 JUMP JUMPDEST SWAP1 POP PUSH1 0x0 PUSH2 0xDAA DUP3 DUP5 PUSH2 0x25E5 JUMP JUMPDEST PUSH1 0x9 SLOAD PUSH1 0x40 MLOAD SWAP2 SWAP3 POP PUSH1 0x0 SWAP2 PUSH1 0x1 PUSH1 0x1 PUSH1 0xA0 SHL SUB SWAP1 SWAP2 AND SWAP1 DUP5 SWAP1 PUSH2 0xDCD SWAP1 PUSH2 0x1E7B JUMP JUMPDEST PUSH1 0x0 PUSH1 0x40 MLOAD DUP1 DUP4 SUB DUP2 DUP6 DUP8 GAS CALL SWAP3 POP POP POP RETURNDATASIZE DUP1 PUSH1 0x0 DUP2 EQ PUSH2 0xE0A JUMPI PUSH1 0x40 MLOAD SWAP2 POP PUSH1 0x1F NOT PUSH1 0x3F RETURNDATASIZE ADD AND DUP3 ADD PUSH1 0x40 MSTORE RETURNDATASIZE DUP3 MSTORE RETURNDATASIZE PUSH1 0x0 PUSH1 0x20 DUP5 ADD RETURNDATACOPY PUSH2 0xE0F JUMP JUMPDEST PUSH1 0x60 SWAP2 POP JUMPDEST POP POP PUSH1 0xA SLOAD PUSH1 0x40 MLOAD SWAP2 SWAP3 POP PUSH1 0x1 PUSH1 0x1 PUSH1 0xA0 SHL SUB AND SWAP1 DUP4 SWAP1 PUSH2 0xE2F SWAP1 PUSH2 0x1E7B JUMP JUMPDEST PUSH1 0x0 PUSH1 0x40 MLOAD DUP1 DUP4 SUB DUP2 DUP6 DUP8 GAS CALL SWAP3 POP POP POP RETURNDATASIZE DUP1 PUSH1 0x0 DUP2 EQ PUSH2 0xE6C JUMPI PUSH1 0x40 MLOAD SWAP2 POP PUSH1 0x1F NOT PUSH1 0x3F RETURNDATASIZE ADD AND DUP3 ADD PUSH1 0x40 MSTORE RETURNDATASIZE DUP3 MSTORE RETURNDATASIZE PUSH1 0x0 PUSH1 0x20 DUP5 ADD RETURNDATACOPY PUSH2 0xE71 JUMP JUMPDEST PUSH1 0x60 SWAP2 POP JUMPDEST POP POP PUSH1 0x7 DUP1 SLOAD PUSH1 0xFF PUSH1 0xA0 SHL NOT AND SWAP1 SSTORE POP POP POP POP POP JUMP JUMPDEST PUSH1 0x7 SLOAD PUSH1 0x1 PUSH1 0xA8 SHL SWAP1 DIV PUSH1 0xFF AND DUP2 JUMP JUMPDEST PUSH1 0x1 PUSH1 0x1 PUSH1 0xA0 SHL SUB AND PUSH1 0x0 SWAP1 DUP2 MSTORE PUSH1 0x20 DUP2 SWAP1 MSTORE PUSH1 0x40 SWAP1 KECCAK256 SLOAD SWAP1 JUMP JUMPDEST PUSH2 0xEBA PUSH2 0x13D5 JUMP JUMPDEST PUSH1 0x1 PUSH1 0x1 PUSH1 0xA0 SHL SUB AND PUSH2 0xECB PUSH2 0xF2E JUMP JUMPDEST PUSH1 0x1 PUSH1 0x1 PUSH1 0xA0 SHL SUB AND EQ PUSH2 0xEF1 JUMPI PUSH1 0x40 MLOAD PUSH3 0x461BCD PUSH1 0xE5 SHL DUP2 MSTORE PUSH1 0x4 ADD PUSH2 0x655 SWAP1 PUSH2 0x2356 JUMP JUMPDEST PUSH2 0xEFB PUSH1 0x0 PUSH2 0x1831 JUMP JUMPDEST JUMP JUMPDEST PUSH1 0x9 SLOAD PUSH1 0x1 PUSH1 0x1 PUSH1 0xA0 SHL SUB AND DUP2 JUMP JUMPDEST PUSH1 0x7 SLOAD PUSH1 0x1 PUSH1 0xB0 SHL SWAP1 DIV PUSH1 0xFF AND DUP2 JUMP JUMPDEST PUSH1 0xB SLOAD PUSH1 0xC SLOAD PUSH1 0xD SLOAD PUSH1 0xE SLOAD PUSH1 0xF SLOAD DUP6 JUMP JUMPDEST PUSH1 0x5 SLOAD PUSH1 0x1 PUSH1 0x1 PUSH1 0xA0 SHL SUB AND SWAP1 JUMP JUMPDEST PUSH1 0x60 PUSH1 0x4 DUP1 SLOAD PUSH2 0x6EA SWAP1 PUSH2 0x25FC JUMP JUMPDEST PUSH2 0xF54 PUSH2 0x13D5 JUMP JUMPDEST PUSH1 0x1 PUSH1 0x1 PUSH1 0xA0 SHL SUB AND PUSH2 0xF65 PUSH2 0xF2E JUMP JUMPDEST PUSH1 0x1 PUSH1 0x1 PUSH1 0xA0 SHL SUB AND EQ PUSH2 0xF8B JUMPI PUSH1 0x40 MLOAD PUSH3 0x461BCD PUSH1 0xE5 SHL DUP2 MSTORE PUSH1 0x4 ADD PUSH2 0x655 SWAP1 PUSH2 0x2356 JUMP JUMPDEST SELFBALANCE CALLER PUSH2 0x8FC PUSH1 0x64 PUSH2 0xF9C DUP6 DUP6 PUSH2 0x25C6 JUMP JUMPDEST PUSH2 0xFA6 SWAP2 SWAP1 PUSH2 0x25A6 JUMP JUMPDEST PUSH1 0x40 MLOAD DUP2 ISZERO SWAP1 SWAP3 MUL SWAP2 PUSH1 0x0 DUP2 DUP2 DUP2 DUP6 DUP9 DUP9 CALL SWAP4 POP POP POP POP ISZERO DUP1 ISZERO PUSH2 0xFCE JUMPI RETURNDATASIZE PUSH1 0x0 DUP1 RETURNDATACOPY RETURNDATASIZE PUSH1 0x0 REVERT JUMPDEST POP PUSH1 0x40 MLOAD PUSH32 0xF20A449062E534A116785D71BDDF65609CFC0BC86030F808C97D76660DDB4BF9 SWAP1 PUSH1 0x0 SWAP1 LOG1 POP POP JUMP JUMPDEST PUSH2 0x1004 PUSH2 0x13D5 JUMP JUMPDEST PUSH1 0x1 PUSH1 0x1 PUSH1 0xA0 SHL SUB AND PUSH2 0x1015 PUSH2 0xF2E JUMP JUMPDEST PUSH1 0x1 PUSH1 0x1 PUSH1 0xA0 SHL SUB AND EQ PUSH2 0x103B JUMPI PUSH1 0x40 MLOAD PUSH3 0x461BCD PUSH1 0xE5 SHL DUP2 MSTORE PUSH1 0x4 ADD PUSH2 0x655 SWAP1 PUSH2 0x2356 JUMP JUMPDEST PUSH2 0x2710 DUP2 LT ISZERO PUSH2 0x105D JUMPI PUSH1 0x40 MLOAD PUSH3 0x461BCD PUSH1 0xE5 SHL DUP2 MSTORE PUSH1 0x4 ADD PUSH2 0x655 SWAP1 PUSH2 0x22B9 JUMP JUMPDEST PUSH4 0x1C9C380 DUP2 GT ISZERO PUSH2 0x1081 JUMPI PUSH1 0x40 MLOAD PUSH3 0x461BCD PUSH1 0xE5 SHL DUP2 MSTORE PUSH1 0x4 ADD PUSH2 0x655 SWAP1 PUSH2 0x206F JUMP JUMPDEST PUSH2 0x1093 DUP2 PUSH8 0xDE0B6B3A7640000 PUSH2 0x25C6 JUMP JUMPDEST PUSH1 0x8 SSTORE PUSH1 0x40 MLOAD PUSH31 0xE5CE26A39FFFB27E333AA941BC88D6CC7491C7AD00E1DC92CAE29C83AEC93D SWAP1 PUSH1 0x0 SWAP1 LOG1 POP JUMP JUMPDEST PUSH1 0x0 DUP1 PUSH1 0x1 PUSH1 0x0 PUSH2 0x10D0 PUSH2 0x13D5 JUMP JUMPDEST PUSH1 0x1 PUSH1 0x1 PUSH1 0xA0 SHL SUB SWAP1 DUP2 AND DUP3 MSTORE PUSH1 0x20 DUP1 DUP4 ADD SWAP4 SWAP1 SWAP4 MSTORE PUSH1 0x40 SWAP2 DUP3 ADD PUSH1 0x0 SWAP1 DUP2 KECCAK256 SWAP2 DUP9 AND DUP2 MSTORE SWAP3 MSTORE SWAP1 KECCAK256 SLOAD SWAP1 POP DUP3 DUP2 LT ISZERO PUSH2 0x111C JUMPI PUSH1 0x40 MLOAD PUSH3 0x461BCD PUSH1 0xE5 SHL DUP2 MSTORE PUSH1 0x4 ADD PUSH2 0x655 SWAP1 PUSH2 0x249F JUMP JUMPDEST PUSH2 0x1132 PUSH2 0x1127 PUSH2 0x13D5 JUMP JUMPDEST DUP6 PUSH2 0x817 DUP7 DUP6 PUSH2 0x25E5 JUMP JUMPDEST POP PUSH1 0x1 SWAP4 SWAP3 POP POP POP JUMP JUMPDEST PUSH1 0x7 SLOAD PUSH1 0x1 PUSH1 0x1 PUSH1 0xA0 SHL SUB AND DUP2 JUMP JUMPDEST PUSH1 0x0 PUSH2 0x781 PUSH2 0x1158 PUSH2 0x13D5 JUMP JUMPDEST DUP5 DUP5 PUSH2 0x148D JUMP JUMPDEST PUSH2 0x1167 PUSH2 0x13D5 JUMP JUMPDEST PUSH1 0x1 PUSH1 0x1 PUSH1 0xA0 SHL SUB AND PUSH2 0x1178 PUSH2 0xF2E JUMP JUMPDEST PUSH1 0x1 PUSH1 0x1 PUSH1 0xA0 SHL SUB AND EQ PUSH2 0x119E JUMPI PUSH1 0x40 MLOAD PUSH3 0x461BCD PUSH1 0xE5 SHL DUP2 MSTORE PUSH1 0x4 ADD PUSH2 0x655 SWAP1 PUSH2 0x2356 JUMP JUMPDEST PUSH1 0x40 DUP1 MLOAD PUSH1 0xA0 DUP2 ADD DUP3 MSTORE DUP7 DUP2 MSTORE PUSH1 0x20 DUP2 ADD DUP7 SWAP1 MSTORE SWAP1 DUP2 ADD DUP5 SWAP1 MSTORE PUSH1 0x60 DUP2 ADD DUP4 SWAP1 MSTORE PUSH1 0x80 ADD DUP2 SWAP1 MSTORE PUSH1 0x10 DUP6 SWAP1 SSTORE PUSH1 0x11 DUP5 SWAP1 SSTORE PUSH1 0x12 DUP4 SWAP1 SSTORE PUSH1 0x13 DUP3 SWAP1 SSTORE PUSH1 0x14 DUP2 SWAP1 SSTORE DUP1 DUP3 DUP5 PUSH2 0x11EB DUP8 DUP10 PUSH2 0x258E JUMP JUMPDEST PUSH2 0x11F5 SWAP2 SWAP1 PUSH2 0x258E JUMP JUMPDEST PUSH2 0x11FF SWAP2 SWAP1 PUSH2 0x258E JUMP JUMPDEST PUSH2 0x1209 SWAP2 SWAP1 PUSH2 0x258E JUMP JUMPDEST PUSH1 0x16 DUP2 SWAP1 SSTORE PUSH1 0x2D LT ISZERO PUSH2 0x122E JUMPI PUSH1 0x40 MLOAD PUSH3 0x461BCD PUSH1 0xE5 SHL DUP2 MSTORE PUSH1 0x4 ADD PUSH2 0x655 SWAP1 PUSH2 0x214F JUMP JUMPDEST PUSH1 0x1 PUSH1 0x16 SLOAD LT ISZERO PUSH2 0x1251 JUMPI PUSH1 0x40 MLOAD PUSH3 0x461BCD PUSH1 0xE5 SHL DUP2 MSTORE PUSH1 0x4 ADD PUSH2 0x655 SWAP1 PUSH2 0x222C JUMP JUMPDEST PUSH1 0x40 MLOAD PUSH32 0x13F91D6936CB30F23ECEF75125DC94FEAD23E2CB4BEB9D95058DF43AA8C30785 SWAP1 PUSH1 0x0 SWAP1 LOG1 POP POP POP POP POP JUMP JUMPDEST PUSH1 0x18 PUSH1 0x20 MSTORE PUSH1 0x0 SWAP1 DUP2 MSTORE PUSH1 0x40 SWAP1 KECCAK256 SLOAD PUSH1 0xFF AND DUP2 JUMP JUMPDEST PUSH1 0x1 PUSH1 0x1 PUSH1 0xA0 SHL SUB SWAP2 DUP3 AND PUSH1 0x0 SWAP1 DUP2 MSTORE PUSH1 0x1 PUSH1 0x20 SWAP1 DUP2 MSTORE PUSH1 0x40 DUP1 DUP4 KECCAK256 SWAP4 SWAP1 SWAP5 AND DUP3 MSTORE SWAP2 SWAP1 SWAP2 MSTORE KECCAK256 SLOAD SWAP1 JUMP JUMPDEST PUSH2 0x12C9 PUSH2 0x13D5 JUMP JUMPDEST PUSH1 0x1 PUSH1 0x1 PUSH1 0xA0 SHL SUB AND PUSH2 0x12DA PUSH2 0xF2E JUMP JUMPDEST PUSH1 0x1 PUSH1 0x1 PUSH1 0xA0 SHL SUB AND EQ PUSH2 0x1300 JUMPI PUSH1 0x40 MLOAD PUSH3 0x461BCD PUSH1 0xE5 SHL DUP2 MSTORE PUSH1 0x4 ADD PUSH2 0x655 SWAP1 PUSH2 0x2356 JUMP JUMPDEST PUSH1 0x7 DUP1 SLOAD PUSH1 0xFF PUSH1 0xA8 SHL NOT AND PUSH1 0x1 PUSH1 0xA8 SHL DUP4 ISZERO ISZERO MUL OR SWAP1 SSTORE PUSH1 0x40 MLOAD PUSH32 0x41C787961CB389554B90A8DBFB700790A3F278F50BA1D330C0B555D884789B5A SWAP1 PUSH1 0x0 SWAP1 LOG1 POP JUMP JUMPDEST PUSH2 0x134B PUSH2 0x13D5 JUMP JUMPDEST PUSH1 0x1 PUSH1 0x1 PUSH1 0xA0 SHL SUB AND PUSH2 0x135C PUSH2 0xF2E JUMP JUMPDEST PUSH1 0x1 PUSH1 0x1 PUSH1 0xA0 SHL SUB AND EQ PUSH2 0x1382 JUMPI PUSH1 0x40 MLOAD PUSH3 0x461BCD PUSH1 0xE5 SHL DUP2 MSTORE PUSH1 0x4 ADD PUSH2 0x655 SWAP1 PUSH2 0x2356 JUMP JUMPDEST PUSH1 0x1 PUSH1 0x1 PUSH1 0xA0 SHL SUB DUP2 AND PUSH2 0x13A8 JUMPI PUSH1 0x40 MLOAD PUSH3 0x461BCD PUSH1 0xE5 SHL DUP2 MSTORE PUSH1 0x4 ADD PUSH2 0x655 SWAP1 PUSH2 0x1FE7 JUMP JUMPDEST PUSH2 0x13B1 DUP2 PUSH2 0x1831 JUMP JUMPDEST POP JUMP JUMPDEST PUSH1 0x10 SLOAD PUSH1 0x11 SLOAD PUSH1 0x12 SLOAD PUSH1 0x13 SLOAD PUSH1 0x14 SLOAD DUP6 JUMP JUMPDEST PUSH1 0x6 SLOAD PUSH1 0x1 PUSH1 0x1 PUSH1 0xA0 SHL SUB AND DUP2 JUMP JUMPDEST CALLER SWAP1 JUMP JUMPDEST PUSH1 0x1 PUSH1 0x1 PUSH1 0xA0 SHL SUB DUP4 AND PUSH2 0x13FF JUMPI PUSH1 0x40 MLOAD PUSH3 0x461BCD PUSH1 0xE5 SHL DUP2 MSTORE PUSH1 0x4 ADD PUSH2 0x655 SWAP1 PUSH2 0x2419 JUMP JUMPDEST PUSH1 0x1 PUSH1 0x1 PUSH1 0xA0 SHL SUB DUP3 AND PUSH2 0x1425 JUMPI PUSH1 0x40 MLOAD PUSH3 0x461BCD PUSH1 0xE5 SHL DUP2 MSTORE PUSH1 0x4 ADD PUSH2 0x655 SWAP1 PUSH2 0x202D JUMP JUMPDEST PUSH1 0x1 PUSH1 0x1 PUSH1 0xA0 SHL SUB DUP1 DUP5 AND PUSH1 0x0 DUP2 DUP2 MSTORE PUSH1 0x1 PUSH1 0x20 SWAP1 DUP2 MSTORE PUSH1 0x40 DUP1 DUP4 KECCAK256 SWAP5 DUP8 AND DUP1 DUP5 MSTORE SWAP5 SWAP1 SWAP2 MSTORE SWAP1 DUP2 SWAP1 KECCAK256 DUP5 SWAP1 SSTORE MLOAD PUSH32 0x8C5BE1E5EBEC7D5BD14F71427D1E84F3DD0314C0F7B2291E5B200AC8C7C3B925 SWAP1 PUSH2 0x1480 SWAP1 DUP6 SWAP1 PUSH2 0x24E4 JUMP JUMPDEST PUSH1 0x40 MLOAD DUP1 SWAP2 SUB SWAP1 LOG3 POP POP POP JUMP JUMPDEST PUSH1 0x0 DUP2 GT PUSH2 0x14AD JUMPI PUSH1 0x40 MLOAD PUSH3 0x461BCD PUSH1 0xE5 SHL DUP2 MSTORE PUSH1 0x4 ADD PUSH2 0x655 SWAP1 PUSH2 0x238B JUMP JUMPDEST PUSH1 0x1 PUSH1 0x1 PUSH1 0xA0 SHL SUB DUP4 AND PUSH1 0x0 SWAP1 DUP2 MSTORE PUSH1 0x18 PUSH1 0x20 MSTORE PUSH1 0x40 SWAP1 KECCAK256 SLOAD PUSH1 0xFF AND ISZERO DUP1 ISZERO PUSH2 0x14EF JUMPI POP PUSH1 0x1 PUSH1 0x1 PUSH1 0xA0 SHL SUB DUP3 AND PUSH1 0x0 SWAP1 DUP2 MSTORE PUSH1 0x18 PUSH1 0x20 MSTORE PUSH1 0x40 SWAP1 KECCAK256 SLOAD PUSH1 0xFF AND ISZERO JUMPDEST DUP1 ISZERO PUSH2 0x1505 JUMPI POP PUSH1 0x7 SLOAD PUSH1 0x1 PUSH1 0xA0 SHL SWAP1 DIV PUSH1 0xFF AND ISZERO JUMPDEST ISZERO PUSH2 0x1533 JUMPI PUSH1 0x7 SLOAD PUSH1 0x1 PUSH1 0xB0 SHL SWAP1 DIV PUSH1 0xFF AND PUSH2 0x1533 JUMPI PUSH1 0x40 MLOAD PUSH3 0x461BCD PUSH1 0xE5 SHL DUP2 MSTORE PUSH1 0x4 ADD PUSH2 0x655 SWAP1 PUSH2 0x1FB7 JUMP JUMPDEST PUSH1 0x7 SLOAD PUSH1 0x0 SWAP1 PUSH1 0x1 PUSH1 0xA0 SHL SWAP1 DIV PUSH1 0xFF AND DUP1 PUSH2 0x1566 JUMPI POP PUSH1 0x1 PUSH1 0x1 PUSH1 0xA0 SHL SUB DUP5 AND PUSH1 0x0 SWAP1 DUP2 MSTORE PUSH1 0x18 PUSH1 0x20 MSTORE PUSH1 0x40 SWAP1 KECCAK256 SLOAD PUSH1 0xFF AND JUMPDEST DUP1 PUSH2 0x1589 JUMPI POP PUSH1 0x1 PUSH1 0x1 PUSH1 0xA0 SHL SUB DUP4 AND PUSH1 0x0 SWAP1 DUP2 MSTORE PUSH1 0x18 PUSH1 0x20 MSTORE PUSH1 0x40 SWAP1 KECCAK256 SLOAD PUSH1 0xFF AND JUMPDEST ISZERO PUSH2 0x1596 JUMPI POP PUSH1 0x0 PUSH2 0x15F7 JUMP JUMPDEST PUSH1 0x7 SLOAD PUSH1 0x1 PUSH1 0x1 PUSH1 0xA0 SHL SUB DUP5 DUP2 AND SWAP2 AND EQ ISZERO PUSH2 0x15CD JUMPI PUSH1 0x64 PUSH1 0x16 SLOAD DUP4 PUSH2 0x15BC SWAP2 SWAP1 PUSH2 0x25C6 JUMP JUMPDEST PUSH2 0x15C6 SWAP2 SWAP1 PUSH2 0x25A6 JUMP JUMPDEST SWAP1 POP PUSH2 0x15F7 JUMP JUMPDEST PUSH1 0x7 SLOAD PUSH1 0x1 PUSH1 0x1 PUSH1 0xA0 SHL SUB DUP6 DUP2 AND SWAP2 AND EQ ISZERO PUSH2 0x15F3 JUMPI PUSH1 0x64 PUSH1 0x15 SLOAD DUP4 PUSH2 0x15BC SWAP2 SWAP1 PUSH2 0x25C6 JUMP JUMPDEST POP PUSH1 0x0 JUMPDEST PUSH1 0x7 SLOAD PUSH1 0x1 PUSH1 0xA8 SHL SWAP1 DIV PUSH1 0xFF AND DUP1 ISZERO PUSH2 0x161A JUMPI POP PUSH1 0x7 SLOAD PUSH1 0x1 PUSH1 0xA0 SHL SWAP1 DIV PUSH1 0xFF AND ISZERO JUMPDEST DUP1 ISZERO PUSH2 0x1634 JUMPI POP PUSH1 0x7 SLOAD PUSH1 0x1 PUSH1 0x1 PUSH1 0xA0 SHL SUB DUP6 DUP2 AND SWAP2 AND EQ ISZERO JUMPDEST DUP1 ISZERO PUSH2 0x1640 JUMPI POP PUSH1 0x0 DUP2 GT JUMPDEST ISZERO PUSH2 0x164D JUMPI PUSH2 0x164D PUSH2 0x1883 JUMP JUMPDEST PUSH2 0x1661 DUP5 DUP5 PUSH2 0x165C DUP5 DUP7 PUSH2 0x25E5 JUMP JUMPDEST PUSH2 0x1A2B JUMP JUMPDEST DUP1 ISZERO PUSH2 0x1672 JUMPI PUSH2 0x1672 DUP5 ADDRESS DUP4 PUSH2 0x1A2B JUMP JUMPDEST PUSH1 0x16 SLOAD PUSH1 0x14 SLOAD PUSH1 0x0 SWAP2 SWAP1 PUSH2 0x1686 SWAP1 DUP5 PUSH2 0x25C6 JUMP JUMPDEST PUSH2 0x1690 SWAP2 SWAP1 PUSH2 0x25A6 JUMP JUMPDEST SWAP1 POP DUP1 ISZERO PUSH2 0x16A5 JUMPI PUSH2 0x16A5 ADDRESS PUSH2 0xDEAD DUP4 PUSH2 0x1A2B JUMP JUMPDEST POP POP POP POP POP JUMP JUMPDEST PUSH1 0x40 DUP1 MLOAD PUSH1 0x2 DUP1 DUP3 MSTORE PUSH1 0x60 DUP3 ADD DUP4 MSTORE PUSH1 0x0 SWAP3 PUSH1 0x20 DUP4 ADD SWAP1 DUP1 CALLDATASIZE DUP4 CALLDATACOPY ADD SWAP1 POP POP SWAP1 POP ADDRESS DUP2 PUSH1 0x0 DUP2 MLOAD DUP2 LT PUSH2 0x16EF JUMPI PUSH4 0x4E487B71 PUSH1 0xE0 SHL PUSH1 0x0 MSTORE PUSH1 0x32 PUSH1 0x4 MSTORE PUSH1 0x24 PUSH1 0x0 REVERT JUMPDEST PUSH1 0x1 PUSH1 0x1 PUSH1 0xA0 SHL SUB SWAP3 DUP4 AND PUSH1 0x20 SWAP2 DUP3 MUL SWAP3 SWAP1 SWAP3 ADD DUP2 ADD SWAP2 SWAP1 SWAP2 MSTORE PUSH1 0x6 SLOAD PUSH1 0x40 DUP1 MLOAD PUSH4 0x15AB88C9 PUSH1 0xE3 SHL DUP2 MSTORE SWAP1 MLOAD SWAP2 SWAP1 SWAP4 AND SWAP3 PUSH4 0xAD5C4648 SWAP3 PUSH1 0x4 DUP1 DUP4 ADD SWAP4 SWAP2 SWAP3 DUP3 SWAP1 SUB ADD DUP2 DUP7 DUP1 EXTCODESIZE ISZERO DUP1 ISZERO PUSH2 0x1743 JUMPI PUSH1 0x0 DUP1 REVERT JUMPDEST POP GAS STATICCALL ISZERO DUP1 ISZERO PUSH2 0x1757 JUMPI RETURNDATASIZE PUSH1 0x0 DUP1 RETURNDATACOPY RETURNDATASIZE PUSH1 0x0 REVERT JUMPDEST POP POP POP POP PUSH1 0x40 MLOAD RETURNDATASIZE PUSH1 0x1F NOT PUSH1 0x1F DUP3 ADD AND DUP3 ADD DUP1 PUSH1 0x40 MSTORE POP DUP2 ADD SWAP1 PUSH2 0x177B SWAP2 SWAP1 PUSH2 0x1CC0 JUMP JUMPDEST DUP2 PUSH1 0x1 DUP2 MLOAD DUP2 LT PUSH2 0x179C JUMPI PUSH4 0x4E487B71 PUSH1 0xE0 SHL PUSH1 0x0 MSTORE PUSH1 0x32 PUSH1 0x4 MSTORE PUSH1 0x24 PUSH1 0x0 REVERT JUMPDEST PUSH1 0x1 PUSH1 0x1 PUSH1 0xA0 SHL SUB SWAP3 DUP4 AND PUSH1 0x20 SWAP2 DUP3 MUL SWAP3 SWAP1 SWAP3 ADD ADD MSTORE PUSH1 0x6 SLOAD PUSH2 0x17C2 SWAP2 ADDRESS SWAP2 AND DUP5 PUSH2 0x13D9 JUMP JUMPDEST PUSH1 0x6 SLOAD PUSH1 0x40 MLOAD PUSH4 0x791AC947 PUSH1 0xE0 SHL DUP2 MSTORE PUSH1 0x1 PUSH1 0x1 PUSH1 0xA0 SHL SUB SWAP1 SWAP2 AND SWAP1 PUSH4 0x791AC947 SWAP1 PUSH2 0x17FB SWAP1 DUP6 SWAP1 PUSH1 0x0 SWAP1 DUP7 SWAP1 ADDRESS SWAP1 TIMESTAMP SWAP1 PUSH1 0x4 ADD PUSH2 0x24ED JUMP JUMPDEST PUSH1 0x0 PUSH1 0x40 MLOAD DUP1 DUP4 SUB DUP2 PUSH1 0x0 DUP8 DUP1 EXTCODESIZE ISZERO DUP1 ISZERO PUSH2 0x1815 JUMPI PUSH1 0x0 DUP1 REVERT JUMPDEST POP GAS CALL ISZERO DUP1 ISZERO PUSH2 0x1829 JUMPI RETURNDATASIZE PUSH1 0x0 DUP1 RETURNDATACOPY RETURNDATASIZE PUSH1 0x0 REVERT JUMPDEST POP POP POP POP POP POP JUMP JUMPDEST PUSH1 0x5 DUP1 SLOAD PUSH1 0x1 PUSH1 0x1 PUSH1 0xA0 SHL SUB DUP4 DUP2 AND PUSH1 0x1 PUSH1 0x1 PUSH1 0xA0 SHL SUB NOT DUP4 AND DUP2 OR SWAP1 SWAP4 SSTORE PUSH1 0x40 MLOAD SWAP2 AND SWAP2 SWAP1 DUP3 SWAP1 PUSH32 0x8BE0079C531659141344CD1FD0A4F28419497F9722A3DAAFE3B4186F6B6457E0 SWAP1 PUSH1 0x0 SWAP1 LOG3 POP POP JUMP JUMPDEST PUSH1 0x7 SLOAD PUSH1 0x1 PUSH1 0xA0 SHL SWAP1 DIV PUSH1 0xFF AND PUSH2 0xEFB JUMPI PUSH1 0x7 DUP1 SLOAD PUSH1 0xFF PUSH1 0xA0 SHL NOT AND PUSH1 0x1 PUSH1 0xA0 SHL OR SWAP1 SSTORE PUSH1 0x0 PUSH2 0x18B2 ADDRESS PUSH2 0xE97 JUMP JUMPDEST SWAP1 POP PUSH1 0x8 SLOAD DUP2 LT PUSH2 0x1A1B JUMPI PUSH1 0x0 PUSH1 0x16 SLOAD PUSH1 0x2 PUSH2 0x18CE SWAP2 SWAP1 PUSH2 0x25C6 JUMP JUMPDEST SWAP1 POP PUSH1 0x0 DUP2 PUSH1 0x10 PUSH1 0x1 ADD SLOAD DUP5 PUSH2 0x18E4 SWAP2 SWAP1 PUSH2 0x25C6 JUMP JUMPDEST PUSH2 0x18EE SWAP2 SWAP1 PUSH2 0x25A6 JUMP JUMPDEST SWAP1 POP PUSH1 0x0 PUSH2 0x18FC DUP3 DUP6 PUSH2 0x25E5 JUMP JUMPDEST SWAP1 POP SELFBALANCE PUSH2 0x1908 DUP3 PUSH2 0x16AC JUMP JUMPDEST PUSH1 0x0 PUSH2 0x1914 DUP3 SELFBALANCE PUSH2 0x25E5 JUMP JUMPDEST PUSH1 0x11 SLOAD SWAP1 SWAP2 POP PUSH1 0x0 SWAP1 PUSH2 0x1927 SWAP1 DUP8 PUSH2 0x25E5 JUMP JUMPDEST PUSH2 0x1931 SWAP1 DUP4 PUSH2 0x25A6 JUMP JUMPDEST PUSH1 0x11 SLOAD SWAP1 SWAP2 POP PUSH1 0x0 SWAP1 PUSH2 0x1944 SWAP1 DUP4 PUSH2 0x25C6 JUMP JUMPDEST SWAP1 POP PUSH1 0x0 DUP7 GT DUP1 ISZERO PUSH2 0x1956 JUMPI POP PUSH1 0x0 DUP2 GT JUMPDEST ISZERO PUSH2 0x1965 JUMPI PUSH2 0x1965 DUP7 DUP3 PUSH2 0x1B53 JUMP JUMPDEST PUSH1 0x10 SLOAD PUSH1 0x0 SWAP1 PUSH2 0x1976 DUP5 PUSH1 0x2 PUSH2 0x25C6 JUMP JUMPDEST PUSH2 0x1980 SWAP2 SWAP1 PUSH2 0x25C6 JUMP JUMPDEST SWAP1 POP DUP1 ISZERO PUSH2 0x199E JUMPI PUSH1 0x9 SLOAD PUSH2 0x199E SWAP1 PUSH1 0x1 PUSH1 0x1 PUSH1 0xA0 SHL SUB AND DUP3 PUSH2 0x1BFC JUMP JUMPDEST PUSH1 0x12 SLOAD PUSH1 0x0 SWAP1 PUSH2 0x19AF DUP6 PUSH1 0x2 PUSH2 0x25C6 JUMP JUMPDEST PUSH2 0x19B9 SWAP2 SWAP1 PUSH2 0x25C6 JUMP JUMPDEST SWAP1 POP DUP1 ISZERO PUSH2 0x19D7 JUMPI PUSH1 0xA SLOAD PUSH2 0x19D7 SWAP1 PUSH1 0x1 PUSH1 0x1 PUSH1 0xA0 SHL SUB AND DUP3 PUSH2 0x1BFC JUMP JUMPDEST PUSH1 0x13 SLOAD PUSH1 0x0 SWAP1 PUSH2 0x19E8 DUP7 PUSH1 0x2 PUSH2 0x25C6 JUMP JUMPDEST PUSH2 0x19F2 SWAP2 SWAP1 PUSH2 0x25C6 JUMP JUMPDEST SWAP1 POP DUP1 ISZERO PUSH2 0x1A10 JUMPI PUSH1 0xA SLOAD PUSH2 0x1A10 SWAP1 PUSH1 0x1 PUSH1 0x1 PUSH1 0xA0 SHL SUB AND DUP3 PUSH2 0x1BFC JUMP JUMPDEST POP POP POP POP POP POP POP POP POP POP JUMPDEST POP PUSH1 0x7 DUP1 SLOAD PUSH1 0xFF PUSH1 0xA0 SHL NOT AND SWAP1 SSTORE JUMP JUMPDEST PUSH1 0x1 PUSH1 0x1 PUSH1 0xA0 SHL SUB DUP4 AND PUSH2 0x1A51 JUMPI PUSH1 0x40 MLOAD PUSH3 0x461BCD PUSH1 0xE5 SHL DUP2 MSTORE PUSH1 0x4 ADD PUSH2 0x655 SWAP1 PUSH2 0x23D4 JUMP JUMPDEST PUSH1 0x1 PUSH1 0x1 PUSH1 0xA0 SHL SUB DUP3 AND PUSH2 0x1A77 JUMPI PUSH1 0x40 MLOAD PUSH3 0x461BCD PUSH1 0xE5 SHL DUP2 MSTORE PUSH1 0x4 ADD PUSH2 0x655 SWAP1 PUSH2 0x1F74 JUMP JUMPDEST PUSH2 0x1A82 DUP4 DUP4 DUP4 PUSH2 0x1C98 JUMP JUMPDEST PUSH1 0x1 PUSH1 0x1 PUSH1 0xA0 SHL SUB DUP4 AND PUSH1 0x0 SWAP1 DUP2 MSTORE PUSH1 0x20 DUP2 SWAP1 MSTORE PUSH1 0x40 SWAP1 KECCAK256 SLOAD DUP2 DUP2 LT ISZERO PUSH2 0x1ABB JUMPI PUSH1 0x40 MLOAD PUSH3 0x461BCD PUSH1 0xE5 SHL DUP2 MSTORE PUSH1 0x4 ADD PUSH2 0x655 SWAP1 PUSH2 0x20C1 JUMP JUMPDEST PUSH2 0x1AC5 DUP3 DUP3 PUSH2 0x25E5 JUMP JUMPDEST PUSH1 0x1 PUSH1 0x1 PUSH1 0xA0 SHL SUB DUP1 DUP7 AND PUSH1 0x0 SWAP1 DUP2 MSTORE PUSH1 0x20 DUP2 SWAP1 MSTORE PUSH1 0x40 DUP1 DUP3 KECCAK256 SWAP4 SWAP1 SWAP4 SSTORE SWAP1 DUP6 AND DUP2 MSTORE SWAP1 DUP2 KECCAK256 DUP1 SLOAD DUP5 SWAP3 SWAP1 PUSH2 0x1AFB SWAP1 DUP5 SWAP1 PUSH2 0x258E JUMP JUMPDEST SWAP3 POP POP DUP2 SWAP1 SSTORE POP DUP3 PUSH1 0x1 PUSH1 0x1 PUSH1 0xA0 SHL SUB AND DUP5 PUSH1 0x1 PUSH1 0x1 PUSH1 0xA0 SHL SUB AND PUSH32 0xDDF252AD1BE2C89B69C2B068FC378DAA952BA7F163C4A11628F55A4DF523B3EF DUP5 PUSH1 0x40 MLOAD PUSH2 0x1B45 SWAP2 SWAP1 PUSH2 0x24E4 JUMP JUMPDEST PUSH1 0x40 MLOAD DUP1 SWAP2 SUB SWAP1 LOG3 POP POP POP POP JUMP JUMPDEST PUSH1 0x6 SLOAD PUSH2 0x1B6B SWAP1 ADDRESS SWAP1 PUSH1 0x1 PUSH1 0x1 PUSH1 0xA0 SHL SUB AND DUP5 PUSH2 0x13D9 JUMP JUMPDEST PUSH1 0x6 SLOAD PUSH1 0x40 MLOAD PUSH4 0xF305D719 PUSH1 0xE0 SHL DUP2 MSTORE PUSH1 0x1 PUSH1 0x1 PUSH1 0xA0 SHL SUB SWAP1 SWAP2 AND SWAP1 PUSH4 0xF305D719 SWAP1 DUP4 SWAP1 PUSH2 0x1BAA SWAP1 ADDRESS SWAP1 DUP8 SWAP1 PUSH1 0x0 SWAP1 DUP2 SWAP1 PUSH2 0xDEAD SWAP1 TIMESTAMP SWAP1 PUSH1 0x4 ADD PUSH2 0x1EAB JUMP JUMPDEST PUSH1 0x60 PUSH1 0x40 MLOAD DUP1 DUP4 SUB DUP2 DUP6 DUP9 DUP1 EXTCODESIZE ISZERO DUP1 ISZERO PUSH2 0x1BC3 JUMPI PUSH1 0x0 DUP1 REVERT JUMPDEST POP GAS CALL ISZERO DUP1 ISZERO PUSH2 0x1BD7 JUMPI RETURNDATASIZE PUSH1 0x0 DUP1 RETURNDATACOPY RETURNDATASIZE PUSH1 0x0 REVERT JUMPDEST POP POP POP POP POP PUSH1 0x40 MLOAD RETURNDATASIZE PUSH1 0x1F NOT PUSH1 0x1F DUP3 ADD AND DUP3 ADD DUP1 PUSH1 0x40 MSTORE POP DUP2 ADD SWAP1 PUSH2 0x16A5 SWAP2 SWAP1 PUSH2 0x1E14 JUMP JUMPDEST DUP1 SELFBALANCE LT ISZERO PUSH2 0x1C1C JUMPI PUSH1 0x40 MLOAD PUSH3 0x461BCD PUSH1 0xE5 SHL DUP2 MSTORE PUSH1 0x4 ADD PUSH2 0x655 SWAP1 PUSH2 0x21F5 JUMP JUMPDEST PUSH1 0x0 DUP3 PUSH1 0x1 PUSH1 0x1 PUSH1 0xA0 SHL SUB AND DUP3 PUSH1 0x40 MLOAD PUSH2 0x1C35 SWAP1 PUSH2 0x1E7B JUMP JUMPDEST PUSH1 0x0 PUSH1 0x40 MLOAD DUP1 DUP4 SUB DUP2 DUP6 DUP8 GAS CALL SWAP3 POP POP POP RETURNDATASIZE DUP1 PUSH1 0x0 DUP2 EQ PUSH2 0x1C72 JUMPI PUSH1 0x40 MLOAD SWAP2 POP PUSH1 0x1F NOT PUSH1 0x3F RETURNDATASIZE ADD AND DUP3 ADD PUSH1 0x40 MSTORE RETURNDATASIZE DUP3 MSTORE RETURNDATASIZE PUSH1 0x0 PUSH1 0x20 DUP5 ADD RETURNDATACOPY PUSH2 0x1C77 JUMP JUMPDEST PUSH1 0x60 SWAP2 POP JUMPDEST POP POP SWAP1 POP DUP1 PUSH2 0x1C98 JUMPI PUSH1 0x40 MLOAD PUSH3 0x461BCD PUSH1 0xE5 SHL DUP2 MSTORE PUSH1 0x4 ADD PUSH2 0x655 SWAP1 PUSH2 0x2198 JUMP JUMPDEST POP POP POP JUMP JUMPDEST PUSH1 0x0 PUSH1 0x20 DUP3 DUP5 SUB SLT ISZERO PUSH2 0x1CAE JUMPI DUP1 DUP2 REVERT JUMPDEST DUP2 CALLDATALOAD PUSH2 0x1CB9 DUP2 PUSH2 0x264D JUMP JUMPDEST SWAP4 SWAP3 POP POP POP JUMP JUMPDEST PUSH1 0x0 PUSH1 0x20 DUP3 DUP5 SUB SLT ISZERO PUSH2 0x1CD1 JUMPI DUP1 DUP2 REVERT JUMPDEST DUP2 MLOAD PUSH2 0x1CB9 DUP2 PUSH2 0x264D JUMP JUMPDEST PUSH1 0x0 DUP1 PUSH1 0x40 DUP4 DUP6 SUB SLT ISZERO PUSH2 0x1CEE JUMPI DUP1 DUP2 REVERT JUMPDEST DUP3 CALLDATALOAD PUSH2 0x1CF9 DUP2 PUSH2 0x264D JUMP JUMPDEST SWAP2 POP PUSH1 0x20 DUP4 ADD CALLDATALOAD PUSH2 0x1D09 DUP2 PUSH2 0x264D JUMP JUMPDEST DUP1 SWAP2 POP POP SWAP3 POP SWAP3 SWAP1 POP JUMP JUMPDEST PUSH1 0x0 DUP1 PUSH1 0x0 PUSH1 0x60 DUP5 DUP7 SUB SLT ISZERO PUSH2 0x1D28 JUMPI DUP1 DUP2 REVERT JUMPDEST DUP4 CALLDATALOAD PUSH2 0x1D33 DUP2 PUSH2 0x264D JUMP JUMPDEST SWAP3 POP PUSH1 0x20 DUP5 ADD CALLDATALOAD PUSH2 0x1D43 DUP2 PUSH2 0x264D JUMP JUMPDEST SWAP3 SWAP6 SWAP3 SWAP5 POP POP POP PUSH1 0x40 SWAP2 SWAP1 SWAP2 ADD CALLDATALOAD SWAP1 JUMP JUMPDEST PUSH1 0x0 DUP1 PUSH1 0x40 DUP4 DUP6 SUB SLT ISZERO PUSH2 0x1D66 JUMPI DUP2 DUP3 REVERT JUMPDEST DUP3 CALLDATALOAD PUSH2 0x1D71 DUP2 PUSH2 0x264D JUMP JUMPDEST SWAP2 POP PUSH1 0x20 DUP4 ADD CALLDATALOAD PUSH2 0x1D09 DUP2 PUSH2 0x2662 JUMP JUMPDEST PUSH1 0x0 DUP1 PUSH1 0x40 DUP4 DUP6 SUB SLT ISZERO PUSH2 0x1D93 JUMPI DUP2 DUP3 REVERT JUMPDEST DUP3 CALLDATALOAD PUSH2 0x1D9E DUP2 PUSH2 0x264D JUMP JUMPDEST SWAP5 PUSH1 0x20 SWAP4 SWAP1 SWAP4 ADD CALLDATALOAD SWAP4 POP POP POP JUMP JUMPDEST PUSH1 0x0 PUSH1 0x20 DUP3 DUP5 SUB SLT ISZERO PUSH2 0x1DBD JUMPI DUP1 DUP2 REVERT JUMPDEST DUP2 CALLDATALOAD PUSH2 0x1CB9 DUP2 PUSH2 0x2662 JUMP JUMPDEST PUSH1 0x0 PUSH1 0x20 DUP3 DUP5 SUB SLT ISZERO PUSH2 0x1DD9 JUMPI DUP1 DUP2 REVERT JUMPDEST DUP2 MLOAD PUSH2 0x1CB9 DUP2 PUSH2 0x2662 JUMP JUMPDEST PUSH1 0x0 PUSH1 0x20 DUP3 DUP5 SUB SLT ISZERO PUSH2 0x1DF5 JUMPI DUP1 DUP2 REVERT JUMPDEST POP CALLDATALOAD SWAP2 SWAP1 POP JUMP JUMPDEST PUSH1 0x0 PUSH1 0x20 DUP3 DUP5 SUB SLT ISZERO PUSH2 0x1E0D JUMPI DUP1 DUP2 REVERT JUMPDEST POP MLOAD SWAP2 SWAP1 POP JUMP JUMPDEST PUSH1 0x0 DUP1 PUSH1 0x0 PUSH1 0x60 DUP5 DUP7 SUB SLT ISZERO PUSH2 0x1E28 JUMPI DUP3 DUP4 REVERT JUMPDEST DUP4 MLOAD SWAP3 POP PUSH1 0x20 DUP5 ADD MLOAD SWAP2 POP PUSH1 0x40 DUP5 ADD MLOAD SWAP1 POP SWAP3 POP SWAP3 POP SWAP3 JUMP JUMPDEST PUSH1 0x0 DUP1 PUSH1 0x0 DUP1 PUSH1 0x0 PUSH1 0xA0 DUP7 DUP9 SUB SLT ISZERO PUSH2 0x1E58 JUMPI DUP1 DUP2 REVERT JUMPDEST POP POP DUP4 CALLDATALOAD SWAP6 PUSH1 0x20 DUP6 ADD CALLDATALOAD SWAP6 POP PUSH1 0x40 DUP6 ADD CALLDATALOAD SWAP5 PUSH1 0x60 DUP2 ADD CALLDATALOAD SWAP5 POP PUSH1 0x80 ADD CALLDATALOAD SWAP3 POP SWAP1 POP JUMP JUMPDEST SWAP1 JUMP JUMPDEST PUSH1 0x1 PUSH1 0x1 PUSH1 0xA0 SHL SUB SWAP2 SWAP1 SWAP2 AND DUP2 MSTORE PUSH1 0x20 ADD SWAP1 JUMP JUMPDEST PUSH1 0x1 PUSH1 0x1 PUSH1 0xA0 SHL SUB SWAP3 SWAP1 SWAP3 AND DUP3 MSTORE PUSH1 0x20 DUP3 ADD MSTORE PUSH1 0x40 ADD SWAP1 JUMP JUMPDEST PUSH1 0x1 PUSH1 0x1 PUSH1 0xA0 SHL SUB SWAP7 DUP8 AND DUP2 MSTORE PUSH1 0x20 DUP2 ADD SWAP6 SWAP1 SWAP6 MSTORE PUSH1 0x40 DUP6 ADD SWAP4 SWAP1 SWAP4 MSTORE PUSH1 0x60 DUP5 ADD SWAP2 SWAP1 SWAP2 MSTORE SWAP1 SWAP3 AND PUSH1 0x80 DUP3 ADD MSTORE PUSH1 0xA0 DUP2 ADD SWAP2 SWAP1 SWAP2 MSTORE PUSH1 0xC0 ADD SWAP1 JUMP JUMPDEST SWAP1 ISZERO ISZERO DUP2 MSTORE PUSH1 0x20 ADD SWAP1 JUMP JUMPDEST PUSH1 0x0 PUSH1 0x20 DUP1 DUP4 MSTORE DUP4 MLOAD DUP1 DUP3 DUP6 ADD MSTORE DUP3 JUMPDEST DUP2 DUP2 LT ISZERO PUSH2 0x1F1D JUMPI DUP6 DUP2 ADD DUP4 ADD MLOAD DUP6 DUP3 ADD PUSH1 0x40 ADD MSTORE DUP3 ADD PUSH2 0x1F01 JUMP JUMPDEST DUP2 DUP2 GT ISZERO PUSH2 0x1F2E JUMPI DUP4 PUSH1 0x40 DUP4 DUP8 ADD ADD MSTORE JUMPDEST POP PUSH1 0x1F ADD PUSH1 0x1F NOT AND SWAP3 SWAP1 SWAP3 ADD PUSH1 0x40 ADD SWAP4 SWAP3 POP POP POP JUMP JUMPDEST PUSH1 0x20 DUP1 DUP3 MSTORE PUSH1 0x16 SWAP1 DUP3 ADD MSTORE PUSH22 0x54726164696E6720616C726561647920616374697665 PUSH1 0x50 SHL PUSH1 0x40 DUP3 ADD MSTORE PUSH1 0x60 ADD SWAP1 JUMP JUMPDEST PUSH1 0x20 DUP1 DUP3 MSTORE PUSH1 0x23 SWAP1 DUP3 ADD MSTORE PUSH32 0x45524332303A207472616E7366657220746F20746865207A65726F2061646472 PUSH1 0x40 DUP3 ADD MSTORE PUSH3 0x657373 PUSH1 0xE8 SHL PUSH1 0x60 DUP3 ADD MSTORE PUSH1 0x80 ADD SWAP1 JUMP JUMPDEST PUSH1 0x20 DUP1 DUP3 MSTORE PUSH1 0x16 SWAP1 DUP3 ADD MSTORE PUSH22 0x151C98591A5B99C81B9BDD081858DD1A5D99481E595D PUSH1 0x52 SHL PUSH1 0x40 DUP3 ADD MSTORE PUSH1 0x60 ADD SWAP1 JUMP JUMPDEST PUSH1 0x20 DUP1 DUP3 MSTORE PUSH1 0x26 SWAP1 DUP3 ADD MSTORE PUSH32 0x4F776E61626C653A206E6577206F776E657220697320746865207A65726F2061 PUSH1 0x40 DUP3 ADD MSTORE PUSH6 0x646472657373 PUSH1 0xD0 SHL PUSH1 0x60 DUP3 ADD MSTORE PUSH1 0x80 ADD SWAP1 JUMP JUMPDEST PUSH1 0x20 DUP1 DUP3 MSTORE PUSH1 0x22 SWAP1 DUP3 ADD MSTORE PUSH32 0x45524332303A20617070726F766520746F20746865207A65726F206164647265 PUSH1 0x40 DUP3 ADD MSTORE PUSH2 0x7373 PUSH1 0xF0 SHL PUSH1 0x60 DUP3 ADD MSTORE PUSH1 0x80 ADD SWAP1 JUMP JUMPDEST PUSH1 0x20 DUP1 DUP3 MSTORE PUSH1 0x32 SWAP1 DUP3 ADD MSTORE PUSH32 0x5377617020616D6F756E742063616E6E6F742062652068696768657220746861 PUSH1 0x40 DUP3 ADD MSTORE PUSH18 0x37101992903A37BA30B61039BAB838363C97 PUSH1 0x71 SHL PUSH1 0x60 DUP3 ADD MSTORE PUSH1 0x80 ADD SWAP1 JUMP JUMPDEST PUSH1 0x20 DUP1 DUP3 MSTORE PUSH1 0x26 SWAP1 DUP3 ADD MSTORE PUSH32 0x45524332303A207472616E7366657220616D6F756E7420657863656564732062 PUSH1 0x40 DUP3 ADD MSTORE PUSH6 0x616C616E6365 PUSH1 0xD0 SHL PUSH1 0x60 DUP3 ADD MSTORE PUSH1 0x80 ADD SWAP1 JUMP JUMPDEST PUSH1 0x20 DUP1 DUP3 MSTORE PUSH1 0x28 SWAP1 DUP3 ADD MSTORE PUSH32 0x546F74616C2062757920666565732063616E6E6F742062652067726561746572 PUSH1 0x40 DUP3 ADD MSTORE PUSH8 0x207468616E203525 PUSH1 0xC0 SHL PUSH1 0x60 DUP3 ADD MSTORE PUSH1 0x80 ADD SWAP1 JUMP JUMPDEST PUSH1 0x20 DUP1 DUP3 MSTORE PUSH1 0x29 SWAP1 DUP3 ADD MSTORE PUSH32 0x546F74616C2073656C6C20666565732063616E6E6F7420626520677265617465 PUSH1 0x40 DUP3 ADD MSTORE PUSH9 0x72207468616E203525 PUSH1 0xB8 SHL PUSH1 0x60 DUP3 ADD MSTORE PUSH1 0x80 ADD SWAP1 JUMP JUMPDEST PUSH1 0x20 DUP1 DUP3 MSTORE PUSH1 0x3A SWAP1 DUP3 ADD MSTORE PUSH32 0x416464726573733A20756E61626C6520746F2073656E642076616C75652C2072 PUSH1 0x40 DUP3 ADD MSTORE PUSH32 0x6563697069656E74206D61792068617665207265766572746564000000000000 PUSH1 0x60 DUP3 ADD MSTORE PUSH1 0x80 ADD SWAP1 JUMP JUMPDEST PUSH1 0x20 DUP1 DUP3 MSTORE PUSH1 0x1D SWAP1 DUP3 ADD MSTORE PUSH32 0x416464726573733A20696E73756666696369656E742062616C616E6365000000 PUSH1 0x40 DUP3 ADD MSTORE PUSH1 0x60 ADD SWAP1 JUMP JUMPDEST PUSH1 0x20 DUP1 DUP3 MSTORE PUSH1 0x26 SWAP1 DUP3 ADD MSTORE PUSH32 0x546F74616C2073656C6C20666565732063616E6E6F742062656C657373202074 PUSH1 0x40 DUP3 ADD MSTORE PUSH6 0x68616E203125 PUSH1 0xD0 SHL PUSH1 0x60 DUP3 ADD MSTORE PUSH1 0x80 ADD SWAP1 JUMP JUMPDEST PUSH1 0x20 DUP1 DUP3 MSTORE PUSH1 0x27 SWAP1 DUP3 ADD MSTORE PUSH32 0x4D61726B6574696E672057616C6C65742063616E6E6F74206265207A65726F20 PUSH1 0x40 DUP3 ADD MSTORE PUSH7 0x61646472657373 PUSH1 0xC8 SHL PUSH1 0x60 DUP3 ADD MSTORE PUSH1 0x80 ADD SWAP1 JUMP JUMPDEST PUSH1 0x20 DUP1 DUP3 MSTORE PUSH1 0x35 SWAP1 DUP3 ADD MSTORE PUSH32 0x5377617020616D6F756E742063616E6E6F74206265206C6F776572207468616E PUSH1 0x40 DUP3 ADD MSTORE PUSH21 0x10181718181892903A37BA30B61039BAB838363C97 PUSH1 0x59 SHL PUSH1 0x60 DUP3 ADD MSTORE PUSH1 0x80 ADD SWAP1 JUMP JUMPDEST PUSH1 0x20 DUP1 DUP3 MSTORE PUSH1 0x28 SWAP1 DUP3 ADD MSTORE PUSH32 0x45524332303A207472616E7366657220616D6F756E7420657863656564732061 PUSH1 0x40 DUP3 ADD MSTORE PUSH8 0x6C6C6F77616E6365 PUSH1 0xC0 SHL PUSH1 0x60 DUP3 ADD MSTORE PUSH1 0x80 ADD SWAP1 JUMP JUMPDEST PUSH1 0x20 DUP1 DUP3 MSTORE DUP2 DUP2 ADD MSTORE PUSH32 0x4F776E61626C653A2063616C6C6572206973206E6F7420746865206F776E6572 PUSH1 0x40 DUP3 ADD MSTORE PUSH1 0x60 ADD SWAP1 JUMP JUMPDEST PUSH1 0x20 DUP1 DUP3 MSTORE PUSH1 0x29 SWAP1 DUP3 ADD MSTORE PUSH32 0x5472616E7366657220616D6F756E74206D757374206265206772656174657220 PUSH1 0x40 DUP3 ADD MSTORE PUSH9 0x7468616E207A65726F PUSH1 0xB8 SHL PUSH1 0x60 DUP3 ADD MSTORE PUSH1 0x80 ADD SWAP1 JUMP JUMPDEST PUSH1 0x20 DUP1 DUP3 MSTORE PUSH1 0x25 SWAP1 DUP3 ADD MSTORE PUSH32 0x45524332303A207472616E736665722066726F6D20746865207A65726F206164 PUSH1 0x40 DUP3 ADD MSTORE PUSH5 0x6472657373 PUSH1 0xD8 SHL PUSH1 0x60 DUP3 ADD MSTORE PUSH1 0x80 ADD SWAP1 JUMP JUMPDEST PUSH1 0x20 DUP1 DUP3 MSTORE PUSH1 0x24 SWAP1 DUP3 ADD MSTORE PUSH32 0x45524332303A20617070726F76652066726F6D20746865207A65726F20616464 PUSH1 0x40 DUP3 ADD MSTORE PUSH4 0x72657373 PUSH1 0xE0 SHL PUSH1 0x60 DUP3 ADD MSTORE PUSH1 0x80 ADD SWAP1 JUMP JUMPDEST PUSH1 0x20 DUP1 DUP3 MSTORE PUSH1 0x22 SWAP1 DUP3 ADD MSTORE PUSH32 0x7465616D2057616C6C65742063616E6E6F74206265207A65726F206164647265 PUSH1 0x40 DUP3 ADD MSTORE PUSH2 0x7373 PUSH1 0xF0 SHL PUSH1 0x60 DUP3 ADD MSTORE PUSH1 0x80 ADD SWAP1 JUMP JUMPDEST PUSH1 0x20 DUP1 DUP3 MSTORE PUSH1 0x25 SWAP1 DUP3 ADD MSTORE PUSH32 0x45524332303A2064656372656173656420616C6C6F77616E63652062656C6F77 PUSH1 0x40 DUP3 ADD MSTORE PUSH5 0x207A65726F PUSH1 0xD8 SHL PUSH1 0x60 DUP3 ADD MSTORE PUSH1 0x80 ADD SWAP1 JUMP JUMPDEST SWAP1 DUP2 MSTORE PUSH1 0x20 ADD SWAP1 JUMP JUMPDEST PUSH1 0x0 PUSH1 0xA0 DUP3 ADD DUP8 DUP4 MSTORE PUSH1 0x20 DUP8 DUP2 DUP6 ADD MSTORE PUSH1 0xA0 PUSH1 0x40 DUP6 ADD MSTORE DUP2 DUP8 MLOAD DUP1 DUP5 MSTORE PUSH1 0xC0 DUP7 ADD SWAP2 POP DUP3 DUP10 ADD SWAP4 POP DUP5 JUMPDEST DUP2 DUP2 LT ISZERO PUSH2 0x253C JUMPI DUP5 MLOAD PUSH1 0x1 PUSH1 0x1 PUSH1 0xA0 SHL SUB AND DUP4 MSTORE SWAP4 DUP4 ADD SWAP4 SWAP2 DUP4 ADD SWAP2 PUSH1 0x1 ADD PUSH2 0x2517 JUMP JUMPDEST POP POP PUSH1 0x1 PUSH1 0x1 PUSH1 0xA0 SHL SUB SWAP7 SWAP1 SWAP7 AND PUSH1 0x60 DUP6 ADD MSTORE POP POP POP PUSH1 0x80 ADD MSTORE SWAP4 SWAP3 POP POP POP JUMP JUMPDEST SWAP5 DUP6 MSTORE PUSH1 0x20 DUP6 ADD SWAP4 SWAP1 SWAP4 MSTORE PUSH1 0x40 DUP5 ADD SWAP2 SWAP1 SWAP2 MSTORE PUSH1 0x60 DUP4 ADD MSTORE PUSH1 0x80 DUP3 ADD MSTORE PUSH1 0xA0 ADD SWAP1 JUMP JUMPDEST PUSH1 0xFF SWAP2 SWAP1 SWAP2 AND DUP2 MSTORE PUSH1 0x20 ADD SWAP1 JUMP JUMPDEST PUSH1 0x0 DUP3 NOT DUP3 GT ISZERO PUSH2 0x25A1 JUMPI PUSH2 0x25A1 PUSH2 0x2637 JUMP JUMPDEST POP ADD SWAP1 JUMP JUMPDEST PUSH1 0x0 DUP3 PUSH2 0x25C1 JUMPI PUSH4 0x4E487B71 PUSH1 0xE0 SHL DUP2 MSTORE PUSH1 0x12 PUSH1 0x4 MSTORE PUSH1 0x24 DUP2 REVERT JUMPDEST POP DIV SWAP1 JUMP JUMPDEST PUSH1 0x0 DUP2 PUSH1 0x0 NOT DIV DUP4 GT DUP3 ISZERO ISZERO AND ISZERO PUSH2 0x25E0 JUMPI PUSH2 0x25E0 PUSH2 0x2637 JUMP JUMPDEST POP MUL SWAP1 JUMP JUMPDEST PUSH1 0x0 DUP3 DUP3 LT ISZERO PUSH2 0x25F7 JUMPI PUSH2 0x25F7 PUSH2 0x2637 JUMP JUMPDEST POP SUB SWAP1 JUMP JUMPDEST PUSH1 0x2 DUP2 DIV PUSH1 0x1 DUP3 AND DUP1 PUSH2 0x2610 JUMPI PUSH1 0x7F DUP3 AND SWAP2 POP JUMPDEST PUSH1 0x20 DUP3 LT DUP2 EQ ISZERO PUSH2 0x2631 JUMPI PUSH4 0x4E487B71 PUSH1 0xE0 SHL PUSH1 0x0 MSTORE PUSH1 0x22 PUSH1 0x4 MSTORE PUSH1 0x24 PUSH1 0x0 REVERT JUMPDEST POP SWAP2 SWAP1 POP JUMP JUMPDEST PUSH4 0x4E487B71 PUSH1 0xE0 SHL PUSH1 0x0 MSTORE PUSH1 0x11 PUSH1 0x4 MSTORE PUSH1 0x24 PUSH1 0x0 REVERT JUMPDEST PUSH1 0x1 PUSH1 0x1 PUSH1 0xA0 SHL SUB DUP2 AND DUP2 EQ PUSH2 0x13B1 JUMPI PUSH1 0x0 DUP1 REVERT JUMPDEST DUP1 ISZERO ISZERO DUP2 EQ PUSH2 0x13B1 JUMPI PUSH1 0x0 DUP1 REVERT INVALID LOG2 PUSH5 0x6970667358 0x22 SLT KECCAK256 CALLDATASIZE 0xB4 SHR 0xDE DUP16 0xE4 ADD 0xE4 CHAINID 0x27 PUSH30 0x3A07D95E1C53D8A45C56645080B93D5F452A864E8964736F6C6343000800 STOP CALLER "},"methodIdentifiers":{"allowance(address,address)":"dd62ed3e","approve(address,uint256)":"095ea7b3","balanceOf(address)":"70a08231","buyTaxes()":"864701a5","clearStuckEthers(uint256)":"9aed7370","decimals()":"313ce567","decreaseAllowance(address,uint256)":"a457c2d7","excludedFromFees(address)":"dbe66ca0","increaseAllowance(address,uint256)":"39509351","launch()":"01339c21","launched()":"8091f3bf","marketingWallet()":"75f0a874","name()":"06fdde03","owner()":"8da5cb5b","pair()":"a8aa1b31","renounceOwnership()":"715018a6","router()":"f887ea40","sellTaxes()":"f66895a3","setBuyTaxes(uint256,uint256,uint256,uint256,uint256)":"40ac48d3","setExcludedFromFees(address,bool)":"590ffdce","setMarketingWallet(address)":"5d098b38","setSellTaxes(uint256,uint256,uint256,uint256,uint256)":"c791fc54","setSwapEnabled(bool)":"e01af92c","setSwapThreshold(uint256)":"9d0014b1","setteamWallet(address)":"45bb0a11","swapEnabled()":"6ddd1713","swapThreshold()":"0445b667","symbol()":"95d89b41","teamWallet()":"59927044","totalSupply()":"18160ddd","transfer(address,uint256)":"a9059cbb","transferFrom(address,address,uint256)":"23b872dd","transferOwnership(address)":"f2fde38b","unclog()":"67c45349","withdrawStuckTokens(address,address)":"25b86edf"}}}}}