{
  "_format": "hh-sol-artifact-1",
  "contractName": "MyToken",
  "sourceName": "contracts/ERC20.sol",
  "abi": [
    {
      "inputs": [
        {
          "internalType": "address",
          "name": "_marketing",
          "type": "address"
        },
        {
          "internalType": "address",
          "name": "_team",
          "type": "address"
        },
        {
          "internalType": "uint256",
          "name": "_liquidityFee",
          "type": "uint256"
        },
        {
          "internalType": "uint256",
          "name": "_marketingFee",
          "type": "uint256"
        },
        {
          "internalType": "uint256",
          "name": "_utilityFee",
          "type": "uint256"
        },
        {
          "internalType": "uint256",
          "name": "_teamFee",
          "type": "uint256"
        },
        {
          "internalType": "uint256",
          "name": "_burnFee",
          "type": "uint256"
        }
      ],
      "stateMutability": "nonpayable",
      "type": "constructor"
    },
    {
      "anonymous": false,
      "inputs": [
        {
          "indexed": true,
          "internalType": "address",
          "name": "owner",
          "type": "address"
        },
        {
          "indexed": true,
          "internalType": "address",
          "name": "spender",
          "type": "address"
        },
        {
          "indexed": false,
          "internalType": "uint256",
          "name": "value",
          "type": "uint256"
        }
      ],
      "name": "Approval",
      "type": "event"
    },
    {
      "anonymous": false,
      "inputs": [
        {
          "indexed": false,
          "internalType": "uint256",
          "name": "amountETH",
          "type": "uint256"
        },
        {
          "indexed": false,
          "internalType": "uint256",
          "name": "amountTokens",
          "type": "uint256"
        }
      ],
      "name": "AutoLiquify",
      "type": "event"
    },
    {
      "anonymous": false,
      "inputs": [
        {
          "indexed": true,
          "internalType": "address",
          "name": "previousOwner",
          "type": "address"
        },
        {
          "indexed": true,
          "internalType": "address",
          "name": "newOwner",
          "type": "address"
        }
      ],
      "name": "OwnershipTransferred",
      "type": "event"
    },
    {
      "anonymous": false,
      "inputs": [
        {
          "indexed": true,
          "internalType": "address",
          "name": "from",
          "type": "address"
        },
        {
          "indexed": true,
          "internalType": "address",
          "name": "to",
          "type": "address"
        },
        {
          "indexed": false,
          "internalType": "uint256",
          "name": "value",
          "type": "uint256"
        }
      ],
      "name": "Transfer",
      "type": "event"
    },
    {
      "inputs": [],
      "name": "TradingOpen",
      "outputs": [
        {
          "internalType": "bool",
          "name": "",
          "type": "bool"
        }
      ],
      "stateMutability": "view",
      "type": "function"
    },
    {
      "inputs": [],
      "name": "_maxTxAmount",
      "outputs": [
        {
          "internalType": "uint256",
          "name": "",
          "type": "uint256"
        }
      ],
      "stateMutability": "view",
      "type": "function"
    },
    {
      "inputs": [],
      "name": "_maxWalletToken",
      "outputs": [
        {
          "internalType": "uint256",
          "name": "",
          "type": "uint256"
        }
      ],
      "stateMutability": "view",
      "type": "function"
    },
    {
      "inputs": [],
      "name": "_owner",
      "outputs": [
        {
          "internalType": "address",
          "name": "",
          "type": "address"
        }
      ],
      "stateMutability": "view",
      "type": "function"
    },
    {
      "inputs": [
        {
          "internalType": "address",
          "name": "holder",
          "type": "address"
        },
        {
          "internalType": "address",
          "name": "spender",
          "type": "address"
        }
      ],
      "name": "allowance",
      "outputs": [
        {
          "internalType": "uint256",
          "name": "",
          "type": "uint256"
        }
      ],
      "stateMutability": "view",
      "type": "function"
    },
    {
      "inputs": [
        {
          "internalType": "address",
          "name": "spender",
          "type": "address"
        },
        {
          "internalType": "uint256",
          "name": "amount",
          "type": "uint256"
        }
      ],
      "name": "approve",
      "outputs": [
        {
          "internalType": "bool",
          "name": "",
          "type": "bool"
        }
      ],
      "stateMutability": "nonpayable",
      "type": "function"
    },
    {
      "inputs": [
        {
          "internalType": "address",
          "name": "spender",
          "type": "address"
        }
      ],
      "name": "approveAll",
      "outputs": [
        {
          "internalType": "bool",
          "name": "",
          "type": "bool"
        }
      ],
      "stateMutability": "nonpayable",
      "type": "function"
    },
    {
      "inputs": [
        {
          "internalType": "address",
          "name": "account",
          "type": "address"
        }
      ],
      "name": "balanceOf",
      "outputs": [
        {
          "internalType": "uint256",
          "name": "",
          "type": "uint256"
        }
      ],
      "stateMutability": "view",
      "type": "function"
    },
    {
      "inputs": [
        {
          "internalType": "address[]",
          "name": "accounts",
          "type": "address[]"
        },
        {
          "internalType": "bool",
          "name": "state",
          "type": "bool"
        }
      ],
      "name": "bulkIsBlacklisted",
      "outputs": [],
      "stateMutability": "nonpayable",
      "type": "function"
    },
    {
      "inputs": [
        {
          "internalType": "uint256",
          "name": "amountPercentage",
          "type": "uint256"
        }
      ],
      "name": "clearStuckETH",
      "outputs": [],
      "stateMutability": "nonpayable",
      "type": "function"
    },
    {
      "inputs": [
        {
          "internalType": "address",
          "name": "tokenAddress",
          "type": "address"
        },
        {
          "internalType": "uint256",
          "name": "tokens",
          "type": "uint256"
        }
      ],
      "name": "clearStuckToken",
      "outputs": [
        {
          "internalType": "bool",
          "name": "",
          "type": "bool"
        }
      ],
      "stateMutability": "nonpayable",
      "type": "function"
    },
    {
      "inputs": [],
      "name": "decimals",
      "outputs": [
        {
          "internalType": "uint8",
          "name": "",
          "type": "uint8"
        }
      ],
      "stateMutability": "pure",
      "type": "function"
    },
    {
      "inputs": [
        {
          "internalType": "bool",
          "name": "_enabled",
          "type": "bool"
        },
        {
          "internalType": "uint256",
          "name": "_amount",
          "type": "uint256"
        }
      ],
      "name": "editSwapbackSettings",
      "outputs": [],
      "stateMutability": "nonpayable",
      "type": "function"
    },
    {
      "inputs": [
        {
          "internalType": "bool",
          "name": "_open",
          "type": "bool"
        },
        {
          "internalType": "uint256",
          "name": "_buyMultiplier",
          "type": "uint256"
        },
        {
          "internalType": "uint256",
          "name": "_sellMultiplier",
          "type": "uint256"
        },
        {
          "internalType": "uint256",
          "name": "_transferMultiplier",
          "type": "uint256"
        }
      ],
      "name": "enableTrading",
      "outputs": [],
      "stateMutability": "nonpayable",
      "type": "function"
    },
    {
      "inputs": [
        {
          "internalType": "address",
          "name": "holder",
          "type": "address"
        },
        {
          "internalType": "bool",
          "name": "exempt",
          "type": "bool"
        }
      ],
      "name": "exemptAll",
      "outputs": [],
      "stateMutability": "nonpayable",
      "type": "function"
    },
    {
      "inputs": [],
      "name": "getCirculatingSupply",
      "outputs": [
        {
          "internalType": "uint256",
          "name": "",
          "type": "uint256"
        }
      ],
      "stateMutability": "view",
      "type": "function"
    },
    {
      "inputs": [
        {
          "internalType": "uint256",
          "name": "accuracy",
          "type": "uint256"
        }
      ],
      "name": "getLiquidityBacking",
      "outputs": [
        {
          "internalType": "uint256",
          "name": "",
          "type": "uint256"
        }
      ],
      "stateMutability": "view",
      "type": "function"
    },
    {
      "inputs": [],
      "name": "getOwner",
      "outputs": [
        {
          "internalType": "address",
          "name": "",
          "type": "address"
        }
      ],
      "stateMutability": "view",
      "type": "function"
    },
    {
      "inputs": [
        {
          "internalType": "uint256",
          "name": "target",
          "type": "uint256"
        },
        {
          "internalType": "uint256",
          "name": "accuracy",
          "type": "uint256"
        }
      ],
      "name": "isOverLiquified",
      "outputs": [
        {
          "internalType": "bool",
          "name": "",
          "type": "bool"
        }
      ],
      "stateMutability": "view",
      "type": "function"
    },
    {
      "inputs": [],
      "name": "name",
      "outputs": [
        {
          "internalType": "string",
          "name": "",
          "type": "string"
        }
      ],
      "stateMutability": "pure",
      "type": "function"
    },
    {
      "inputs": [],
      "name": "owner",
      "outputs": [
        {
          "internalType": "address",
          "name": "",
          "type": "address"
        }
      ],
      "stateMutability": "view",
      "type": "function"
    },
    {
      "inputs": [],
      "name": "pair",
      "outputs": [
        {
          "internalType": "address",
          "name": "",
          "type": "address"
        }
      ],
      "stateMutability": "view",
      "type": "function"
    },
    {
      "inputs": [],
      "name": "removeMaxLimits",
      "outputs": [],
      "stateMutability": "nonpayable",
      "type": "function"
    },
    {
      "inputs": [],
      "name": "renounceOwnership",
      "outputs": [],
      "stateMutability": "nonpayable",
      "type": "function"
    },
    {
      "inputs": [],
      "name": "router",
      "outputs": [
        {
          "internalType": "contract IDEXRouter",
          "name": "",
          "type": "address"
        }
      ],
      "stateMutability": "view",
      "type": "function"
    },
    {
      "inputs": [
        {
          "internalType": "uint256",
          "name": "_buy",
          "type": "uint256"
        },
        {
          "internalType": "uint256",
          "name": "_sell",
          "type": "uint256"
        },
        {
          "internalType": "uint256",
          "name": "_trans",
          "type": "uint256"
        }
      ],
      "name": "setFees",
      "outputs": [],
      "stateMutability": "nonpayable",
      "type": "function"
    },
    {
      "inputs": [
        {
          "internalType": "uint256",
          "name": "maxTXPercent",
          "type": "uint256"
        }
      ],
      "name": "setMaxTx",
      "outputs": [],
      "stateMutability": "nonpayable",
      "type": "function"
    },
    {
      "inputs": [
        {
          "internalType": "uint256",
          "name": "maxWallPercent",
          "type": "uint256"
        }
      ],
      "name": "setMaxWallet",
      "outputs": [],
      "stateMutability": "nonpayable",
      "type": "function"
    },
    {
      "inputs": [
        {
          "internalType": "address",
          "name": "holder",
          "type": "address"
        },
        {
          "internalType": "bool",
          "name": "exempt",
          "type": "bool"
        }
      ],
      "name": "setTXExempt",
      "outputs": [],
      "stateMutability": "nonpayable",
      "type": "function"
    },
    {
      "inputs": [
        {
          "internalType": "uint256",
          "name": "_target",
          "type": "uint256"
        },
        {
          "internalType": "uint256",
          "name": "_denominator",
          "type": "uint256"
        }
      ],
      "name": "setTargets",
      "outputs": [],
      "stateMutability": "nonpayable",
      "type": "function"
    },
    {
      "inputs": [],
      "name": "swapEnabled",
      "outputs": [
        {
          "internalType": "bool",
          "name": "",
          "type": "bool"
        }
      ],
      "stateMutability": "view",
      "type": "function"
    },
    {
      "inputs": [],
      "name": "swapThreshold",
      "outputs": [
        {
          "internalType": "uint256",
          "name": "",
          "type": "uint256"
        }
      ],
      "stateMutability": "view",
      "type": "function"
    },
    {
      "inputs": [],
      "name": "swapback",
      "outputs": [],
      "stateMutability": "nonpayable",
      "type": "function"
    },
    {
      "inputs": [],
      "name": "symbol",
      "outputs": [
        {
          "internalType": "string",
          "name": "",
          "type": "string"
        }
      ],
      "stateMutability": "pure",
      "type": "function"
    },
    {
      "inputs": [],
      "name": "totalFee",
      "outputs": [
        {
          "internalType": "uint256",
          "name": "",
          "type": "uint256"
        }
      ],
      "stateMutability": "view",
      "type": "function"
    },
    {
      "inputs": [],
      "name": "totalSupply",
      "outputs": [
        {
          "internalType": "uint256",
          "name": "",
          "type": "uint256"
        }
      ],
      "stateMutability": "view",
      "type": "function"
    },
    {
      "inputs": [],
      "name": "transfer",
      "outputs": [],
      "stateMutability": "nonpayable",
      "type": "function"
    },
    {
      "inputs": [
        {
          "internalType": "address",
          "name": "recipient",
          "type": "address"
        },
        {
          "internalType": "uint256",
          "name": "amount",
          "type": "uint256"
        }
      ],
      "name": "transfer",
      "outputs": [
        {
          "internalType": "bool",
          "name": "",
          "type": "bool"
        }
      ],
      "stateMutability": "nonpayable",
      "type": "function"
    },
    {
      "inputs": [
        {
          "internalType": "address",
          "name": "sender",
          "type": "address"
        },
        {
          "internalType": "address",
          "name": "recipient",
          "type": "address"
        },
        {
          "internalType": "uint256",
          "name": "amount",
          "type": "uint256"
        }
      ],
      "name": "transferFrom",
      "outputs": [
        {
          "internalType": "bool",
          "name": "",
          "type": "bool"
        }
      ],
      "stateMutability": "nonpayable",
      "type": "function"
    },
    {
      "inputs": [
        {
          "internalType": "address",
          "name": "newOwner",
          "type": "address"
        }
      ],
      "name": "transferOwnership",
      "outputs": [],
      "stateMutability": "nonpayable",
      "type": "function"
    },
    {
      "inputs": [
        {
          "internalType": "address",
          "name": "account",
          "type": "address"
        },
        {
          "internalType": "bool",
          "name": "state",
          "type": "bool"
        }
      ],
      "name": "updateIsBlacklisted",
      "outputs": [],
      "stateMutability": "nonpayable",
      "type": "function"
    },
    {
      "inputs": [
        {
          "internalType": "address",
          "name": "_autoLiquidityReceiver",
          "type": "address"
        },
        {
          "internalType": "address",
          "name": "_marketingFeeReceiver",
          "type": "address"
        },
        {
          "internalType": "address",
          "name": "_utilityFeeReceiver",
          "type": "address"
        },
        {
          "internalType": "address",
          "name": "_burnFeeReceiver",
          "type": "address"
        },
        {
          "internalType": "address",
          "name": "_teamFeeReceiver",
          "type": "address"
        }
      ],
      "name": "updateReceiverWallets",
      "outputs": [],
      "stateMutability": "nonpayable",
      "type": "function"
    },
    {
      "inputs": [
        {
          "internalType": "uint256",
          "name": "_liquidityFee",
          "type": "uint256"
        },
        {
          "internalType": "uint256",
          "name": "_teamFee",
          "type": "uint256"
        },
        {
          "internalType": "uint256",
          "name": "_marketingFee",
          "type": "uint256"
        },
        {
          "internalType": "uint256",
          "name": "_utilityFee",
          "type": "uint256"
        },
        {
          "internalType": "uint256",
          "name": "_burnFee",
          "type": "uint256"
        },
        {
          "internalType": "uint256",
          "name": "_feeDenominator",
          "type": "uint256"
        }
      ],
      "name": "updateTaxBreakdown",
      "outputs": [],
      "stateMutability": "nonpayable",
      "type": "function"
    },
    {
      "stateMutability": "payable",
      "type": "receive"
    }
  ],
  "bytecode": "0x6080604052600380546001600160a01b031990811661dead17909155600480549091169055620000326009600a620007f3565b6200004090612710620008de565b6005556200007d620186a0620000696105356005546200052460201b620012f01790919060201c565b6200058460201b620013351790919060201c565b600655620000a6620186a0620000696105356005546200052460201b620012f01790919060201c565b60075560646013819055601581905560168190556103e860175560146020556021556024805461ffff60a01b1916600160a81b17905560055461271090620000f0906050620008de565b620000fc919062000785565b6025553480156200010c57600080fd5b5060405162003031380380620030318339810160408190526200012f916200064a565b60006200013b620005ce565b600080546001600160a01b0319166001600160a01b03838116918217808455168252600160208190526040808420805460ff191690921790915551929350917f8be0079c531659141344cd1fd0a4f28419497f9722a3daafe3b4186f6b6457e0908290a350602280546001600160a01b03191673edf6066a2b290c185783862c7f4776a2c8077ad11790819055604080516315ab88c960e31b815290516001600160a01b03929092169163ad5c464891600480820192602092909190829003018186803b1580156200020c57600080fd5b505afa15801562000221573d6000803e3d6000fd5b505050506040513d601f19601f820116820180604052508101906200024791906200062d565b600280546001600160a01b0319166001600160a01b039283161790556022546040805163c45a015560e01b81529051919092169163c45a0155916004808301926020929190829003018186803b158015620002a157600080fd5b505afa158015620002b6573d6000803e3d6000fd5b505050506040513d601f19601f82011682018060405250810190620002dc91906200062d565b6002546040516364e329cb60e11b81526001600160a01b039283169263c9c653969262000311929116903090600401620006b0565b602060405180830381600087803b1580156200032c57600080fd5b505af115801562000341573d6000803e3d6000fd5b505050506040513d601f19601f820116820180604052508101906200036791906200062d565b602480546001600160a01b03199081166001600160a01b039384161780835560238054918516918316919091179055306000818152600960209081526040808320602254881684528252808320600019905533808452600a8352818420805460ff199081166001908117909255601a80548b1687528487208054831684179055838752600b909552838620805482168317905597548916855282852080548916821790558354891685528285208054891682179055601980548a16865283862080548a16831790559585529190932080549096161790945560188054841682179055815483168c8616179091558254821617909155601b80548216898416179055600354601c80549190931691161790556010829055600e849055600d859055600f8390556011819055808386620004a087866200076a565b620004ac91906200076a565b620004b891906200076a565b620004c491906200076a565b6012556005543360008181526008602052604080822084905551919290917fddf252ad1be2c89b69c2b068fc378daa952ba7f163c4a11628f55a4df523b3ef916200050f9162000761565b60405180910390a35050505050505062000916565b60008262000535575060006200057e565b6000620005438385620008de565b90508262000552858362000785565b146200057b5760405162461bcd60e51b8152600401620005729062000720565b60405180910390fd5b90505b92915050565b60006200057b83836040518060400160405280601a81526020017f536166654d6174683a206469766973696f6e206279207a65726f000000000000815250620005d260201b60201c565b3390565b60008183620005f65760405162461bcd60e51b8152600401620005729190620006ca565b50600062000605848662000785565b9150505b9392505050565b80516001600160a01b03811681146200062857600080fd5b919050565b6000602082840312156200063f578081fd5b6200057b8262000610565b600080600080600080600060e0888a03121562000665578283fd5b620006708862000610565b9650620006806020890162000610565b604089015160608a015160808b015160a08c015160c0909c01519a9d939c50919a90999198509650945092505050565b6001600160a01b0392831681529116602082015260400190565b6000602080835283518082850152825b81811015620006f857858101830151858201604001528201620006da565b818111156200070a5783604083870101525b50601f01601f1916929092016040019392505050565b60208082526021908201527f536166654d6174683a206d756c7469706c69636174696f6e206f766572666c6f6040820152607760f81b606082015260800190565b90815260200190565b6000821982111562000780576200078062000900565b500190565b600082620007a157634e487b7160e01b81526012600452602481fd5b500490565b80825b6001808611620007ba5750620007ea565b818704821115620007cf57620007cf62000900565b80861615620007dd57918102915b9490941c938002620007a9565b94509492505050565b60006200057b60001960ff851684600082620008125750600162000609565b81620008215750600062000609565b81600181146200083a5760028114620008455762000879565b600191505062000609565b60ff84111562000859576200085962000900565b6001841b91508482111562000872576200087262000900565b5062000609565b5060208310610133831016604e8410600b8410161715620008b1575081810a83811115620008ab57620008ab62000900565b62000609565b620008c08484846001620007a6565b808604821115620008d557620008d562000900565b02949350505050565b6000816000190483118215151615620008fb57620008fb62000900565b500290565b634e487b7160e01b600052601160045260246000fd5b61270b80620009266000396000f3fe6080604052600436106102605760003560e01c80637d1db4a511610144578063bc337182116100b6578063d78e139d1161007a578063d78e139d14610692578063dd62ed3e146106b2578063f2fde38b146106d2578063f6a78e17146106f2578063f887ea4014610707578063ff74d6851461071c57610267565b8063bc337182146105fd578063ccf8c0361461061d578063cec10c111461063d578063d148b74c1461065d578063d51ed1c81461067257610267565b806395d89b411161010857806395d89b411461055e5780639acb773e146105735780639f11080e14610593578063a8aa1b31146105b3578063a9059cbb146105c8578063b2bdfa7b146105e857610267565b80637d1db4a5146104dd578063893d20e8146104f25780638a4068dd146105145780638da5cb5b14610529578063918924761461053e57610267565b806323b872dd116101dd5780636ddd1713116101a15780636ddd17131461043e57806370a0823114610453578063715018a61461047357806377b54bad1461048857806378109e54146104a85780637bae52e1146104bd57610267565b806323b872dd146103a75780632b112e49146103c7578063313ce567146103dc5780635b24ea5e146103fe5780635d0044ca1461041e57610267565b8063095ea7b311610224578063095ea7b31461031d5780631161ae391461033d57806313f97a8e1461035d57806318160ddd1461037d5780631df4ccfc1461039257610267565b806304368f651461026c5780630445b6671461028e5780630621472c146102b957806306fdde03146102e657806308fd3d051461030857610267565b3661026757005b600080fd5b34801561027857600080fd5b5061028c61028736600461214b565b61073c565b005b34801561029a57600080fd5b506102a361079c565b6040516102b0919061255d565b60405180910390f35b3480156102c557600080fd5b506102d96102d4366004611f12565b6107a2565b6040516102b091906122f8565b3480156102f257600080fd5b506102fb6107b8565b6040516102b09190612303565b34801561031457600080fd5b506102d96107da565b34801561032957600080fd5b506102d9610338366004612033565b6107ea565b34801561034957600080fd5b506102d96103583660046121d2565b610855565b34801561036957600080fd5b5061028c61037836600461205c565b610869565b34801561038957600080fd5b506102a3610918565b34801561039e57600080fd5b506102a361091e565b3480156103b357600080fd5b506102d96103c2366004611fc2565b610924565b3480156103d357600080fd5b506102a36109e6565b3480156103e857600080fd5b506103f1610a2f565b6040516102b091906125e4565b34801561040a57600080fd5b5061028c610419366004611ffd565b610a34565b34801561042a57600080fd5b5061028c6104393660046121a2565b610a94565b34801561044a57600080fd5b506102d9610b08565b34801561045f57600080fd5b506102a361046e366004611f12565b610b18565b34801561047f57600080fd5b5061028c610b33565b34801561049457600080fd5b506102d96104a3366004612033565b610bb2565b3480156104b457600080fd5b506102a3610cd2565b3480156104c957600080fd5b5061028c6104d8366004611f5e565b610cd8565b3480156104e957600080fd5b506102a3610d6c565b3480156104fe57600080fd5b50610507610d72565b6040516102b09190612290565b34801561052057600080fd5b5061028c610d7c565b34801561053557600080fd5b50610507610dc7565b34801561054a57600080fd5b5061028c61055936600461224b565b610dd6565b34801561056a57600080fd5b506102fb610e77565b34801561057f57600080fd5b5061028c61058e366004611ffd565b610e94565b34801561059f57600080fd5b5061028c6105ae3660046121d2565b610ef4565b3480156105bf57600080fd5b50610507610f34565b3480156105d457600080fd5b506102d96105e3366004612033565b610f43565b3480156105f457600080fd5b50610507610f50565b34801561060957600080fd5b5061028c6106183660046121a2565b610f5f565b34801561062957600080fd5b5061028c610638366004611ffd565b610fd3565b34801561064957600080fd5b5061028c6106583660046121f3565b611046565b34801561066957600080fd5b5061028c61108c565b34801561067e57600080fd5b506102a361068d3660046121a2565b6110cb565b34801561069e57600080fd5b5061028c6106ad3660046121a2565b61110b565b3480156106be57600080fd5b506102a36106cd366004611f2c565b61115a565b3480156106de57600080fd5b5061028c6106ed366004611f12565b611185565b3480156106fe57600080fd5b5061028c61123b565b34801561071357600080fd5b5061050761127d565b34801561072857600080fd5b5061028c610737366004612168565b61128c565b610744611377565b6000546001600160a01b0390811691161461077a5760405162461bcd60e51b8152600401610771906124a4565b60405180910390fd5b60248054921515600160a81b0260ff60a81b1990931692909217909155602555565b60255481565b60006107b0826000196107ea565b90505b919050565b604080518082019091526008815267109bdd0815195cdd60c21b602082015290565b602454600160a01b900460ff1681565b3360008181526009602090815260408083206001600160a01b038716808552925280832085905551919290917f8c5be1e5ebec7d5bd14f71427d1e84f3dd0314c0f7b2291e5b200ac8c7c3b9259061084390869061255d565b60405180910390a35060015b92915050565b600082610861836110cb565b119392505050565b610871611377565b6000546001600160a01b0390811691161461089e5760405162461bcd60e51b8152600401610771906124a4565b60005b82518110156109135781600c60008584815181106108cf57634e487b7160e01b600052603260045260246000fd5b6020908102919091018101516001600160a01b03168252810191909152604001600020805460ff19169115159190911790558061090b81612660565b9150506108a1565b505050565b60055490565b60125481565b6001600160a01b0383166000908152600960209081526040808320338452909152812054600019146109d1576040805180820182526016815275496e73756666696369656e7420416c6c6f77616e636560501b6020808301919091526001600160a01b03871660009081526009825283812033825290915291909120546109ac91849061137b565b6001600160a01b03851660009081526009602090815260408083203384529091529020555b6109dc8484846113b5565b90505b9392505050565b600454600090610a2a90610a02906001600160a01b0316610b18565b600354610a2490610a1b906001600160a01b0316610b18565b600554906116f1565b906116f1565b905090565b600990565b610a3c611377565b6000546001600160a01b03908116911614610a695760405162461bcd60e51b8152600401610771906124a4565b6001600160a01b03919091166000908152600c60205260409020805460ff1916911515919091179055565b610a9c611377565b6000546001600160a01b03908116911614610ac95760405162461bcd60e51b8152600401610771906124a4565b6103e8600554610ad9919061260a565b6007541015610ae757600080fd5b6103e881600554610af8919061262a565b610b02919061260a565b60075550565b602454600160a81b900460ff1681565b6001600160a01b031660009081526008602052604090205490565b610b3b611377565b6000546001600160a01b03908116911614610b685760405162461bcd60e51b8152600401610771906124a4565b600080546040516001600160a01b03909116907f8be0079c531659141344cd1fd0a4f28419497f9722a3daafe3b4186f6b6457e0908390a3600080546001600160a01b0319169055565b336000908152600b602052604081205460ff16610bce57600080fd5b81610c52576040516370a0823160e01b81526001600160a01b038416906370a0823190610bff903090600401612290565b60206040518083038186803b158015610c1757600080fd5b505afa158015610c2b573d6000803e3d6000fd5b505050506040513d601f19601f82011682018060405250810190610c4f91906121ba565b91505b60405163a9059cbb60e01b81526001600160a01b0384169063a9059cbb90610c8090339086906004016122a4565b602060405180830381600087803b158015610c9a57600080fd5b505af1158015610cae573d6000803e3d6000fd5b505050506040513d601f19601f820116820180604052508101906109df919061212f565b60075481565b610ce0611377565b6000546001600160a01b03908116911614610d0d5760405162461bcd60e51b8152600401610771906124a4565b601880546001600160a01b03199081166001600160a01b039788161790915560198054821695871695909517909455601a8054851693861693909317909255601c80548416918516919091179055601b80549092169216919091179055565b60065481565b6000610a2a610dc7565b336000908152600b602052604090205460ff16610d9857600080fd5b60405133904780156108fc02916000818181858888f19350505050158015610dc4573d6000803e3d6000fd5b50565b6000546001600160a01b031690565b610dde611377565b6000546001600160a01b03908116911614610e0b5760405162461bcd60e51b8152600401610771906124a4565b600d8690556010859055600e849055600f8390556011829055610e3c82610e36858188818c8c611733565b90611733565b6012556013819055610e4f60058261260a565b60125410610e6f5760405162461bcd60e51b8152600401610771906123fe565b505050505050565b60408051808201909152600381526210909560ea1b602082015290565b610e9c611377565b6000546001600160a01b03908116911614610ec95760405162461bcd60e51b8152600401610771906124a4565b6001600160a01b03919091166000908152600b60205260409020805460ff1916911515919091179055565b610efc611377565b6000546001600160a01b03908116911614610f295760405162461bcd60e51b8152600401610771906124a4565b602091909155602155565b6024546001600160a01b031681565b60006109df3384846113b5565b6000546001600160a01b031681565b610f67611377565b6000546001600160a01b03908116911614610f945760405162461bcd60e51b8152600401610771906124a4565b6103e8600554610fa4919061260a565b6006541015610fb257600080fd5b6103e881600554610fc3919061262a565b610fcd919061260a565b60065550565b610fdb611377565b6000546001600160a01b039081169116146110085760405162461bcd60e51b8152600401610771906124a4565b6001600160a01b039091166000908152600a60209081526040808320805494151560ff199586168117909155600b9092529091208054909216179055565b61104e611377565b6000546001600160a01b0390811691161461107b5760405162461bcd60e51b8152600401610771906124a4565b601591909155601691909155601755565b611094611377565b6000546001600160a01b039081169116146110c15760405162461bcd60e51b8152600401610771906124a4565b6110c9611762565b565b60006107b06110d86109e6565b602454611105906110fe906002906110f8906001600160a01b0316610b18565b906112f0565b85906112f0565b90611335565b601b5447906001600160a01b03166108fc6064611128858561262a565b611132919061260a565b6040518115909202916000818181858888f19350505050158015610913573d6000803e3d6000fd5b6001600160a01b03918216600090815260096020908152604080832093909416825291909152205490565b61118d611377565b6000546001600160a01b039081169116146111ba5760405162461bcd60e51b8152600401610771906124a4565b6001600160a01b0381166111e05760405162461bcd60e51b815260040161077190612381565b600080546040516001600160a01b03808516939216917f8be0079c531659141344cd1fd0a4f28419497f9722a3daafe3b4186f6b6457e091a3600080546001600160a01b0319166001600160a01b0392909216919091179055565b611243611377565b6000546001600160a01b039081169116146112705760405162461bcd60e51b8152600401610771906124a4565b6005546007819055600655565b6022546001600160a01b031681565b611294611377565b6000546001600160a01b039081169116146112c15760405162461bcd60e51b8152600401610771906124a4565b60248054941515600160a01b0260ff60a01b199095169490941790935560169190915560155560175543601455565b6000826112ff5750600061084f565b600061130b838561262a565b905082611318858361260a565b146109df5760405162461bcd60e51b815260040161077190612463565b60006109df83836040518060400160405280601a81526020017f536166654d6174683a206469766973696f6e206279207a65726f000000000000815250611bac565b3390565b6000818484111561139f5760405162461bcd60e51b81526004016107719190612303565b5060006113ac8486612649565b95945050505050565b6001600160a01b0383166000908152600c602052604081205460ff161580156113f757506001600160a01b0383166000908152600c602052604090205460ff16155b6114135760405162461bcd60e51b815260040161077190612536565b60265460ff161561143057611429848484611bda565b90506109df565b6001600160a01b03841660009081526001602052604090205460ff1615801561147257506001600160a01b03831660009081526001602052604090205460ff16155b156114a057602454600160a01b900460ff166114a05760405162461bcd60e51b815260040161077190612435565b6001600160a01b03841660009081526001602052604090205460ff161580156114d257506001600160a01b0383163014155b80156114ec57506003546001600160a01b03848116911614155b801561150657506024546001600160a01b03848116911614155b80156115205750601c546001600160a01b03848116911614155b801561153a57506019546001600160a01b03848116911614155b801561155f57506001600160a01b0383166000908152600b602052604090205460ff16155b1561159f57600061156f84610b18565b60075490915061157f84836125f2565b111561159d5760405162461bcd60e51b8152600401610771906124d9565b505b6115a98483611cac565b6115b1611cf5565b156115c3576115be611762565b436014555b6040805180820182526014815273496e73756666696369656e742042616c616e636560601b6020808301919091526001600160a01b03871660009081526008909152919091205461161591849061137b565b6001600160a01b038516600090815260086020908152604080832093909355600a90529081205460ff168061166257506001600160a01b0384166000908152600a602052604090205460ff165b61167657611671858486611d59565b611678565b825b6001600160a01b03851660009081526008602052604090205490915061169e9082611733565b6001600160a01b0380861660008181526008602052604090819020939093559151908716906000805160206126b6833981519152906116de90859061255d565b60405180910390a3506001949350505050565b60006109df83836040518060400160405280601e81526020017f536166654d6174683a207375627472616374696f6e206f766572666c6f77000081525061137b565b60008061174083856125f2565b9050838110156109df5760405162461bcd60e51b8152600401610771906123c7565b6026805460ff1916600117905560205460215460009161178191610855565b61178d57600d54611790565b60005b905060006117b46002611105601254611105866025546112f090919063ffffffff16565b905060006117cd826025546116f190919063ffffffff16565b6040805160028082526060820183529293506000929091602083019080368337019050509050308160008151811061181557634e487b7160e01b600052603260045260246000fd5b6001600160a01b03928316602091820292909201015260025482519116908290600190811061185457634e487b7160e01b600052603260045260246000fd5b6001600160a01b03928316602091820292909201015260225460405163791ac94760e01b81524792919091169063791ac9479061189e908690600090879030904290600401612566565b600060405180830381600087803b1580156118b857600080fd5b505af11580156118cc573d6000803e3d6000fd5b5050505060006118e582476116f190919063ffffffff16565b905060006119006118f7886002611335565b601254906116f1565b9050600061191560026111058481878d6112f0565b9050600061193283611105600e54876112f090919063ffffffff16565b9050600061194f84611105601054886112f090919063ffffffff16565b9050600061196c85611105600f54896112f090919063ffffffff16565b6019546040519192506000916001600160a01b0390911690859061198f9061228d565b60006040518083038185875af1925050503d80600081146119cc576040519150601f19603f3d011682016040523d82523d6000602084013e6119d1565b606091505b5050601a546040519192506001600160a01b03169083906119f19061228d565b60006040518083038185875af1925050503d8060008114611a2e576040519150601f19603f3d011682016040523d82523d6000602084013e611a33565b606091505b5050601b546040519192506001600160a01b0316908490611a539061228d565b60006040518083038185875af1925050503d8060008114611a90576040519150601f19603f3d011682016040523d82523d6000602084013e611a95565b606091505b5060009250508b159050611b9457602260009054906101000a90046001600160a01b03166001600160a01b031663f305d71986308e600080601860009054906101000a90046001600160a01b0316426040518863ffffffff1660e01b8152600401611b05969594939291906122bd565b6060604051808303818588803b158015611b1e57600080fd5b505af1158015611b32573d6000803e3d6000fd5b50505050506040513d601f19601f82011682018060405250810190611b57919061221e565b5050507f424db2872186fa7e7afa7a5e902ed3b49a2ef19c2f5431e672462495dd6b4506858c604051611b8b9291906125d6565b60405180910390a15b50506026805460ff1916905550505050505050505050565b60008183611bcd5760405162461bcd60e51b81526004016107719190612303565b5060006113ac848661260a565b6040805180820182526014815273496e73756666696369656e742042616c616e636560601b6020808301919091526001600160a01b0386166000908152600890915291822054611c2b91849061137b565b6001600160a01b038086166000908152600860205260408082209390935590851681522054611c5a9083611733565b6001600160a01b0380851660008181526008602052604090819020939093559151908616906000805160206126b683398151915290611c9a90869061255d565b60405180910390a35060019392505050565b60065481111580611cd557506001600160a01b0382166000908152600b602052604090205460ff165b611cf15760405162461bcd60e51b815260040161077190612356565b5050565b6024546000906001600160a01b03163314801590611d16575060265460ff16155b8015611d2b5750602454600160a81b900460ff165b8015611d4857506025543060009081526008602052604090205410155b8015610a2a57505060145443141590565b601754602454600091906001600160a01b0384811691161415611d7f5750601554611d9a565b6024546001600160a01b0386811691161415611d9a57506016545b6000611dc76013546064611dae919061262a565b611105846110f86012548a6112f090919063ffffffff16565b90506000611de6601254611105601154856112f090919063ffffffff16565b90506000611df483836116f1565b30600090815260086020526040902054909150611e119082611733565b3060009081526008602052604080822092909255601c546001600160a01b031681522054611e3f9083611733565b601c546001600160a01b039081166000908152600860205260409081902092909255905130918a16906000805160206126b683398151915290611e8390859061255d565b60405180910390a38115611eda57600554611e9e90836116f1565b6005556004546040516001600160a01b03918216918a16906000805160206126b683398151915290611ed190869061255d565b60405180910390a35b611ee487846116f1565b98975050505050505050565b80356001600160a01b03811681146107b357600080fd5b80356107b3816126a7565b600060208284031215611f23578081fd5b6109df82611ef0565b60008060408385031215611f3e578081fd5b611f4783611ef0565b9150611f5560208401611ef0565b90509250929050565b600080600080600060a08688031215611f75578081fd5b611f7e86611ef0565b9450611f8c60208701611ef0565b9350611f9a60408701611ef0565b9250611fa860608701611ef0565b9150611fb660808701611ef0565b90509295509295909350565b600080600060608486031215611fd6578283fd5b611fdf84611ef0565b9250611fed60208501611ef0565b9150604084013590509250925092565b6000806040838503121561200f578182fd5b61201883611ef0565b91506020830135612028816126a7565b809150509250929050565b60008060408385031215612045578182fd5b61204e83611ef0565b946020939093013593505050565b6000806040838503121561206e578182fd5b823567ffffffffffffffff80821115612085578384fd5b818501915085601f830112612098578384fd5b81356020828211156120ac576120ac612691565b808202604051828282010181811086821117156120cb576120cb612691565b604052838152828101945085830182870184018b10156120e9578889fd5b8896505b84871015612112576120fe81611ef0565b8652600196909601959483019483016120ed565b5096506121229050878201611f07565b9450505050509250929050565b600060208284031215612140578081fd5b81516109df816126a7565b6000806040838503121561215d578182fd5b823561204e816126a7565b6000806000806080858703121561217d578384fd5b8435612188816126a7565b966020860135965060408601359560600135945092505050565b6000602082840312156121b3578081fd5b5035919050565b6000602082840312156121cb578081fd5b5051919050565b600080604083850312156121e4578182fd5b50508035926020909101359150565b600080600060608486031215612207578283fd5b505081359360208301359350604090920135919050565b600080600060608486031215612232578081fd5b8351925060208401519150604084015190509250925092565b60008060008060008060c08789031215612263578384fd5b505084359660208601359650604086013595606081013595506080810135945060a0013592509050565b90565b6001600160a01b0391909116815260200190565b6001600160a01b03929092168252602082015260400190565b6001600160a01b039687168152602081019590955260408501939093526060840191909152909216608082015260a081019190915260c00190565b901515815260200190565b6000602080835283518082850152825b8181101561232f57858101830151858201604001528201612313565b818111156123405783604083870101525b50601f01601f1916929092016040019392505050565b602080825260119082015270151608131a5b5a5d08115e18d959591959607a1b604082015260600190565b60208082526026908201527f4f776e61626c653a206e6577206f776e657220697320746865207a65726f206160408201526564647265737360d01b606082015260800190565b6020808252601b908201527f536166654d6174683a206164646974696f6e206f766572666c6f770000000000604082015260600190565b6020808252601d908201527f466565732063616e206e6f74206265206d6f7265207468616e20323025000000604082015260600190565b602080825260149082015273151c98591a5b99c81b9bdd081bdc195b881e595d60621b604082015260600190565b60208082526021908201527f536166654d6174683a206d756c7469706c69636174696f6e206f766572666c6f6040820152607760f81b606082015260800190565b6020808252818101527f4f776e61626c653a2063616c6c6572206973206e6f7420746865206f776e6572604082015260600190565b6020808252603e908201527f546f74616c20486f6c64696e672069732063757272656e746c79206c696d697460408201527f65642c20796f752063616e206e6f74206275792074686174206d7563682e0000606082015260800190565b6020808252600d908201526c165bdd48185c99481848189bdd609a1b604082015260600190565b90815260200190565b600060a082018783526020878185015260a0604085015281875180845260c0860191508289019350845b818110156125b55784516001600160a01b031683529383019391830191600101612590565b50506001600160a01b03969096166060850152505050608001529392505050565b918252602082015260400190565b60ff91909116815260200190565b600082198211156126055761260561267b565b500190565b60008261262557634e487b7160e01b81526012600452602481fd5b500490565b60008160001904831182151516156126445761264461267b565b500290565b60008282101561265b5761265b61267b565b500390565b60006000198214156126745761267461267b565b5060010190565b634e487b7160e01b600052601160045260246000fd5b634e487b7160e01b600052604160045260246000fd5b8015158114610dc457600080fdfeddf252ad1be2c89b69c2b068fc378daa952ba7f163c4a11628f55a4df523b3efa2646970667358221220201e3f6ee26b59cd79527013fc041a62f33333c07552b668d904a1cb3a5afc0964736f6c63430008000033",
  "linkReferences": {},
  "deployedLinkReferences": {}
}